:020000040800F2
:10000000682300208D6E000885040008870400081E
:100010008B0400088F04000893040008000000000F
:10002000000000000000000000000000970400082D
:1000300099040008000000009B0400080D1300084C
:10004000A76E0008A76E0008A76E0008A76E00083C
:10005000A76E0008A76E0008A76E0008A76E00082C
:10006000A76E0008A76E0008A76E0008A76E00081C
:10007000A76E0008A76E0008A76E0008A76E00080C
:10008000A76E0008A76E0008A76E0008A76E0008FC
:10009000A76E0008A76E0008A76E0008A76E0008EC
:1000A000A76E0008A76E0008A76E0008A76E0008DC
:1000B000B1100008A76E000821100008A76E000804
:1000C000A76E0008A76E0008A76E0008A76E0008BC
:1000D000A76E0008915C000855110008155E000825
:1000E000A76E0008A76E0008A76E0008A76E00089C
:1000F000A76E0008A76E0008A76E0008A76E00088C
:10010000A76E0008A76E0008A76E0008A76E00087B
:10011000A76E0008A76E0008A76E0008A76E00086B
:10012000A76E0008A76E0008A76E0008A76E00085B
:1001300000F002F800F0B4F80AA090E8000C824445
:100140008344AAF10107DA4501D100F0A9F8AFF222
:10015000090EBAE80F0013F0010F18BFFB1A43F0A5
:10016000010318474C9A00006C9A000010F8013BFC
:100170000A4413F0030408BF10F8014B1D1108BF17
:1001800010F8015B641E05D010F8016B641E01F8C5
:10019000016BF9D1002D15D010F8014B03F00C03C1
:1001A0000C2BA1EB04040ABF10F8013BA4EB831451
:1001B000A4EB032405F1010314F8016B5B1E01F8A5
:1001C000016BF9D5914238BF10F8013BD1D370478C
:1001D0000023002400250026103A28BF78C1FBD850
:1001E000520728BF30C148BF0B6070476E2908F026
:1001F0009B80702908F0DD81662909F05784652904
:1002000009F05484672909F05184612909F0508468
:1002100003681B0A28BF41F08001692908F0488063
:10022000642908F04580752908F042806F2908F09C
:100230006A81782908F0A981E92908F00581E42973
:1002400008F00281F52908F0FF80EF2908F06781A6
:10025000F82908F0A8810368DB0928BF41F0800174
:10026000632908F0A986732908F0AE86E32908F00F
:10027000B986F32908F0BE86002070471FB508F044
:100280000BFF04000020002109F0FAFB401C606015
:100290000020002109F0DEFBE0601FBD10B510BD9D
:1002A00008F0CCFE1146FFF7E9FF00F0C9F808F0AE
:1002B000A5FF03B4FFF7F2FF03BC08F0EDFF000059
:1002C00008B50121080207F08BF94FF6FF70ADF871
:1002D000000003208DF8020010208DF8030069460D
:1002E000614806F0C1FE08BD08B50121202007F0D5
:1002F00077F94FF6FF70ADF8000003208DF802008B
:1003000048208DF803006946584806F0ADFE08BD48
:1003100008B50121402007F063F94FF6FF70ADF8F2
:10032000000003208DF8020010208DF803006946BC
:100330004F4806F099FE0121802007F051F94FF651
:10034000FF70ADF8000003208DF8020010208DF83A
:1003500003006946474806F087FE08BD10B54649C8
:100360000888411C444A1180B0F57A7F02DB0020E6
:10037000114608804148806820B140488068401E8E
:100380003E4988603D48008B48B13C48008B401E88
:100390003A4908830846008B08B905F098FA3748AF
:1003A000408B20B13548408B401E3449488300249F
:1003B00043E03248C03050F8240040B12F48C030EC
:1003C00050F82400401E2D49C03141F824002C482B
:1003D00050F8240028B12A4850F82410491E40F84B
:1003E00024102748403050F8240040B124484030C1
:1003F00050F82400401E2249403141F82400204892
:10040000B03050F8240040B11D48B03050F82400FE
:10041000401E1B49B03141F824001948F03050F813
:10042000240040B11648F03050F82400401E144912
:10043000F03141F82400601CC4B2102CB9DB10BDAF
:1004400005F0A6FD05F00EFE05F0B6FA00F055FE2B
:1004500009E00A48408830B108484088401E0749F2
:100460004880FFF77BFFF4E70020014000140140C3
:1004700000180140001C01400E0000202011002047
:1004800070120020704700BFFEE700BFFEE700BF0C
:10049000FEE700BFFEE77047704770470CB50020CD
:1004A000019000906C48006840F480306A49086010
:1004B00000BF6948006800F4003000900198401CBB
:1004C0000190009818B90198B0F5A06FF1D1624879
:1004D000006800F4003010B10120009001E000201D
:1004E00000900098012843D15C48006840F010005B
:1004F0005A4908600846006820F003000860084672
:10050000006840F002000860534840685249486063
:100510000846406848600846406840F4806048608B
:100520000846406820F47C1048600846406840F463
:10053000E81048600846006840F08070086000BF1E
:100540004548006800F000700028F9D04248406833
:1005500020F00300404948600846406840F002002F
:10056000486000BF3C48406800F00C000828F9D102
:100570000CBD10B5FFF792FF10BD10B536480068EE
:1005800040F001003449086008464068344908409A
:100590003149486008460068324908402E490860E1
:1005A0000846006820F4802008600846406820F46F
:1005B000FE0048604FF41F008860FFF7DAFF4FF03D
:1005C00000602949086010BD10B5002100200022FC
:1005D000214B5B6803F00C0121B1042906D00829E6
:1005E00028D107E0214B224C236027E01F4B204CF1
:1005F000236023E0184B5B6803F47010164B5B68B4
:1006000003F48032022303EB904022B9194B434399
:10061000174C23600DE0104B5B6803F4003323B1EB
:10062000144B4343124C236003E0104B4343104CE4
:10063000236003E00D4B0E4C236000BF00BF064B50
:100640005B68C3F303130C4CE15C094B1B68CB40A4
:10065000074C236010BD0000001002400020024043
:100660000000FFF8FFFFF6FE08ED00E000127A0040
:100670001000002000093D001400002008B50121F1
:10068000042006F0ADFF1020ADF8000028208DF802
:10069000030003208DF802006946FA4806F0E4FCE6
:1006A00008BD00BFF849098801F040010029F9D0D0
:1006B000F549091D0880704710B5EF20FFF7F1FFDD
:1006C0000120FFF7EEFF10BD10B5F0490968080ED4
:1006D000FFF7E7FFED480068C0F30740FFF7E1FFD1
:1006E000EA480088C0F30720FFF7DBFFE7490878F6
:1006F000FFF7D7FF10BD10B504462046FFF7D1FF26
:1007000010BD10B50446C4F30720FFF7CAFFE0B2DE
:10071000FFF7C7FF10BD10B504462046FFF7C1FF25
:1007200010BD10B504462012FFF7BBFFE0B2FFF783
:10073000B8FF10BD7CB50546EF208DF80000012004
:100740008DF80100D1480068000E8DF80200CF48F6
:100750000068000C8DF80300CC480088000A8DF872
:100760000400CA4800788DF8050007208DF80600BF
:1007700000208DF80700C649088012E0012005F02E
:1007800044FCC348008800F4004050B10020C04938
:1007900008806946BF4807F09BFC04460CB1204620
:1007A0007CBD681E80B2051EE8D100BFF8E770B5B9
:1007B000FFF782FFFFF788FF0120FFF79CFF032070
:1007C000FFF79FFF0120FFF7A6FF05263046FFF742
:1007D000A8FF4FF4FA60FFF7ADFF05460DB16C7A44
:1007E00000E0FF24204670BD2DE9F0410546FFF7EB
:1007F00063FFFFF769FF0120FFF77DFF0420FFF78C
:1008000080FF0220FFF787FF2846FFF74AFFEF1D12
:100810003846FFF786FF4FF4FA60FFF78BFF064676
:100820000EB1747A00E0FF242046BDE8F08170B577
:10083000FFF742FFFFF748FF0120FFF75CFF0320AF
:10084000FFF75FFF0320FFF766FF07263046FFF73D
:1008500068FF4FF4FA60FFF76DFF05460DB16C7A43
:1008600000E0FF24204670BD2DE9F04781460D468B
:1008700016461F46FFF720FFFFF726FF0120FFF770
:100880003AFF0820FFF73DFF0420FFF744FF4846EA
:10089000FFF707FF2812FFF704FFE8B2FFF701FF99
:1008A0003012FFF7FEFEF0B2FFF7FBFE09F10D007C
:1008B00000EB2520E9B2084400EB2620F1B200EB62
:1008C000010A5046FFF72DFF4FF4FA60FFF732FFA1
:1008D000044664B194F80980E07AA17A00EB012023
:1008E0003880607B217B00EB0120788001E04FF0B5
:1008F000FF084046BDE8F08770B5FFF7DDFEFFF763
:10090000E3FE0120FFF7F7FE0320FFF7FAFE0520C4
:10091000FFF701FF09263046FFF703FF4FF4FA60A7
:10092000FFF708FF05460DB16C7A00E0FF24204672
:1009300070BD2DE9F04106460C46FFF7BDFEFFF7FE
:10094000C3FE0120FFF7D7FE0620FFF7DAFE0620E0
:10095000FFF7E1FE3046FFF7A4FE2012FFF7A1FEED
:10096000E0B2FFF79EFE06F10D0000EB2420E1B29D
:1009700000EB01084046FFF7D4FE4FF4FA60FFF7A2
:10098000D9FE07460FB17D7A00E0FF252846BDE875
:10099000F0812DE9F04104460D46FFF78DFEFFF78B
:1009A00093FE0120FFF7A7FE0720FFF7AAFE0C2009
:1009B000FFF7B1FE2012FFF774FEE0B2FFF771FE01
:1009C0002812FFF76EFEE8B2FFF76BFE142000EB73
:1009D0002420E1B2084400EB2520E9B200EB010835
:1009E0004046FFF79EFE4FF4FA60FFF7A3FE07466E
:1009F0000FB17E7A00E0FF263046BDE8F08170B589
:100A0000FFF75AFEFFF760FE0120FFF774FE032098
:100A1000FFF777FE0D20FFF77EFE11263046FFF729
:100A200080FE4FF4FA60FFF785FE05460DB16C7A43
:100A300000E0FF24204670BD2DE9F04106460C463B
:100A4000FFF73AFEFFF740FE0120FFF754FE0520B6
:100A5000FFF757FE0E20FFF75EFE3046FFF721FE40
:100A60002046FFF71EFE301900F114084046FFF73C
:100A700058FE4FF4FA60FFF75DFE074667B17D7AD6
:100A80000BE000000008014000440040240000206A
:100A90007E000020A4130020FF252846BDE8F08139
:100AA0002DE9F0410546FFF707FEFFF70DFE012097
:100AB000FFF721FE0320FFF724FE0F20FFF72BFE98
:100AC00013273846FFF72DFE4FF47A70FFF732FEFA
:100AD0000446BCB1667AE07BA17B00EB0120288054
:100AE000607CA870A07C0006E17C00EB0140217DC9
:100AF00000EB0120617D08446860E07D2872607E23
:100B0000687200E0FF263046BDE8F0812DE9F04133
:100B10000446FFF7D1FDFFF7D7FD0120FFF7EBFDFE
:100B20000720FFF7EEFD1520FFF7F5FD200EFFF77C
:100B3000B8FDC4F30740FFF7B4FDC4F30720FFF787
:100B4000B0FDE0B2FFF7ADFD1D2000EB1460C4F373
:100B500007410844C4F307210844E1B24718384666
:100B6000FFF7DFFDB14804604FF4FA60FFF7E2FDE4
:100B700006460EB1757A00E0FF25AC4804602846B1
:100B8000BDE8F0812DE9F04781460E46FFF794FD60
:100B9000FFF79AFD0120FFF7AEFD2420FFF7B1FD1E
:100BA0001820FFF7B8FD4846FFF77BFD002407E05B
:100BB000305DFFF776FD305D384487B2601CC4B20B
:100BC000202CF5DB09F13D00384487B23846FFF7A9
:100BD000A8FD4FF4FA60FFF7ADFD054615B195F895
:100BE000098001E04FF0FF084046BDE8F0872DE99D
:100BF000F04707468846FFF75FFDFFF765FD0120D8
:100C0000FFF779FD0420FFF77CFD1920FFF783FD36
:100C10003846FFF746FD07F11E094846FFF781FDFC
:100C20004FF4FA60FFF786FD064666B1757A002438
:100C300006E004F10A00305C08F80400601CC4B24D
:100C4000202CF6DB00E0FF252846BDE8F0872DE9E3
:100C5000F04781460D4616461F46FFF72DFDFFF76C
:100C600033FD0120FFF747FD0820FFF74AFD1B2059
:100C7000FFF751FD4846FFF714FD2812FFF711FD5D
:100C8000E8B2FFF70EFD3012FFF70BFDF0B2FFF7F1
:100C900008FD09F1240000EB2520E9B2084400EB2F
:100CA0002620F1B200EB010A5046FFF73AFD4FF45F
:100CB000FA60FFF73FFD044664B194F80980E07ADA
:100CC000A17A00EB01203880607B217B00EB0120C2
:100CD000788001E04FF0FF084046BDE8F0872DE93D
:100CE000F0410646FFF7E8FCFFF7EEFC0120FFF7B6
:100CF00002FD0320FFF705FD1D20FFF70CFD212756
:100D00003846FFF70EFD4FF4FA60FFF713FD044677
:100D100034B1657AE07AA17A00EB0120308000E0FE
:100D2000FF252846BDE8F08170B505460024FFF791
:100D3000C3FCFFF7C9FC00BF04E03D49085DFFF7B5
:100D4000B0FC641C0A2CF8DBC82005F05EF93948B9
:100D5000008800F4004008B337480078EF281AD123
:100D600035484078012816D133488079072812D1B8
:100D70003148807800063049C97800EB01402E499F
:100D8000097900EB01202C494979084428600020AA
:100D90002849088070BD0020264908800120F9E715
:100DA000014621293ED2DFE801F011131517191B66
:100DB0001D1F212325273D3D3D3D292B3D3D3D2D3B
:100DC0003D3D2F313335373D3D393B001BA02BE0F6
:100DD0001BA029E01EA027E022A025E026A023E0FA
:100DE0002DA021E034A01FE03AA01DE047A01BE0A9
:100DF00049A019E04CA017E04FA000BF57A013E096
:100E00005AA011E05DA00FE065A00DE068A00BE026
:100E10006AA009E06DA007E071A005E075A003E0FD
:100E200077A001E079A000BF00BF70472400002038
:100E3000280000207E000020A41300204F4B00005B
:100E4000CAFDBEDDB0FCBDD3CAD5B4EDCEF3000003
:100E5000B4ABB8D0C6F7C9CFC3BBD3D0CAD6D6B807
:100E600000000000C2BCC8EBD6B8CEC6CDBCCFF1E6
:100E7000CAA7B0DC00000000D6B8CEC6CDBCCFF10A
:100E8000CCABB8C9A1A2CCABB5ADB6F8C9FAB2BB70
:100E9000B3C9CCD8D5F70000D6B8CEC6CDBCCFF1FB
:100EA000CCABCAAAA1A2CCABBAFDB6F8C9FAB2BB08
:100EB000B3C9CCD8D5F70000D6B8CEC6CDBCCFF1DB
:100EC000CCABC2D2B6F8C9FAB2BBB3C9CCD8D5F74D
:100ED00000000000D6B8CEC6CDBCCFF1D5FDB3A37F
:100EE000A3ACB5ABCCD8D5F7B5E3CCABC9D9A3A8E7
:100EF000BBF2C3E6BBFDCCABD0A1A3A9B6F8C9FA3F
:100F0000B2BBB3C9CCD8D5F700000000D6B8CEC666
:100F1000B2BBC6A5C5E40000C3BBCBD1CBF7B5BD02
:100F2000D6B8CEC600000000CCD8D5F7BACFB2A252
:100F3000CAA7B0DC00000000B7C3CECAD6B8CEC680
:100F4000BFE2CAB1B5D8D6B7D0F2BAC5B3ACB3F622
:100F5000D6B8CEC6BFE2B7B6CEA70000C9BEB3FDB5
:100F6000C4A3B0E5CAA7B0DC00000000C7E5BFD548
:100F7000D6B8CEC6BFE2CAA7B0DC0000BBBAB3E5A4
:100F8000C7F8C4DAC3BBD3D0D3D0D0A7D4ADCABCC2
:100F9000CDBCB6F8C9FAB2BBB3C9CDBCCFF1000025
:100FA000B6C1D0B420464C41534820B3F6B4ED004E
:100FB000CEB4B6A8D2E5B4EDCEF30000CEDED0A715
:100FC000BCC4B4E6C6F7BAC500000000BCC4B4E6B1
:100FD000C6F7C9E8B6A8C4DAC8DDB4EDCEF30000A0
:100FE000BCC7CAC2B1BED2B3C2EBD6B8B6A8B4EDC4
:100FF000CEF30000D6B8CEC6BFE2C2FA00000000B1
:10100000B5D8D6B7B4EDCEF300000000C4A3BFE955
:10101000B7B5BBD8C8B7C8CFC2EBD3D0CEF30000AA
:1010200010B50121474805F01CFF98B146480088DB
:1010300040F40040444908804448008840F400409F
:101040004249088001213F4805F01CFF00213D482E
:1010500005F03EFC10BD7FB505460C46012104207D
:1010600006F0CBFAADF80450ADF800400020ADF822
:101070000600ADF802006946324805F0CDF80122BD
:101080001146304805F03FFC01212E4805F020FCB8
:101090001E208DF80C0000208DF80D0002208DF828
:1010A0000E0001208DF80F0003A805F014FF7FBD8E
:1010B00010B50121880705F0D4FE40B10121880751
:1010C00005F0E0FE22484088401C2149488010BDC0
:1010D00008B54FF4E06005F0F9FE1C208DF8000023
:1010E00000208DF8010003208DF8020001208DF80A
:1010F0000300684605F0EFFE08BD0EB50121084665
:1011000006F07BFAFFF7E4FF4FF47A70ADF80400C5
:101110004720ADF800000020ADF8020069464FF00E
:10112000804005F079F80121880705F0ABFE012227
:101130001146900705F0E7FB0121880705F0C8FB81
:101140000EBD000000080040021100207E000020BB
:101150002011002010B540F225515D4806F064FCD6
:10116000F8B15B4806F0E0FBC4B25A48008800F4CE
:101170000040B0B957480088B0F5C87F12DA0021A6
:10118000554805F039FE5348008818B901215248E6
:1011900005F09EFB4F490888411C4E4A11804F497B
:1011A0000C5405E04B48008840F400404949088051
:1011B00010BD10B586B004460121042006F010FAD7
:1011C0000121480406F019FA414806F06DFA04209E
:1011D000ADF8140003208DF8160018208DF81700C4
:1011E00005A93F4805F040FF0820ADF8140048204D
:1011F0008DF8170005A93B4805F036FF0194002043
:10120000ADF80800ADF80A00ADF80C00ADF810001C
:101210000C20ADF80E0001A92D4806F088FA012136
:101220002B4806F010FB012240F22551284806F019
:1012300016FB26208DF8000002208DF80100062004
:101240008DF8020001208DF80300684605F043FE8A
:1012500041F61F416320FFF7FEFE00201D49088074
:1012600000211D4805F034FB06B010BD0FB438B5A1
:1012700005A800901C48009A049906F017FF00206A
:101280000090194806F036FF85B200240DE000BF3B
:1012900040210F4806F0B2FB0028F9D01248015D4A
:1012A0000B4806F03DFB601C84B2AC42EFDB38BC5F
:1012B0005DF814FB10B504462146054806F030FBE6
:1012C00000BF8021024806F099FB0028F9D010BD2C
:1012D000004400407E00002000080040A4130020CD
:1012E00000080140000C01403415002010B5002812
:1012F00007DA0A07140EF74A00F00F031B1FD45435
:1013000003E00A07130EF44A135410BD10B5F34856
:101310000088401CF1490880F1480088401CF049D1
:101320000880F0480088401CEE490880EE4800889C
:1013300020B1ED480088401EEB490880EB4800884A
:10134000401C80B2E9490880B0F57A7F20DB00209C
:101350000880E7480078D8B106F0B3FBE54800689C
:10136000401CE4490860052812D90020086000BF2D
:10137000D8480C38006800F4E060DF490843001DDD
:10138000D4490C390860BFF34F8F00BF00BFFEE7A0
:1013900010BD00EB800100BF0A1EA1F10101FBD1CD
:1013A000704708E0002100E0491C41F2A40291428C
:1013B000FAD3421E90B20028F4DC704705E011F821
:1013C000013B00F8013B531EDAB2002AF7DC7047FC
:1013D00030B5034609E013F8014B11F8015BAC424C
:1013E00001D0002030BD501EC2B2002AF3DC012023
:1013F000F8E7411CBC4A118000BFBB49098800299D
:10140000FBD1704710B5042005F0AFFDBB48006864
:101410004FF47A71B0FBF1F4B4F1807F01D3012075
:1014200011E024F07F40401E4FF0E02148610F2181
:101430004FF0FF30FFF75AFF00204FF0E0218861A6
:1014400007200861002008B100BFFEE70021481E08
:10145000FFF74CFF10BD10B5FFF7D4FF0020A049E7
:1014600008809E4908800120A549087010BD10B56C
:10147000044645F2555006F01BFB042006F01BFB0A
:10148000204606F01BFB06F01CFB06F01FFB10BD00
:10149000002098490860704708B50121082006F02F
:1014A0009FF84FF40050ADF8000010208DF80300B5
:1014B00003208DF802006946924805F0D5FD4FF4EF
:1014C0000051904805F07DFE08BD38B58C48807B02
:1014D000012874D18A48007B062871D2DFE800F029
:1014E000030F5EF070EF8848006838B164208449CB
:1014F0008860012008730020844908705AE1804800
:101500008068002849D1FFF752F90446002C3AD1EF
:101510000120FFF769F90446002C34D16B460A22FA
:1015200000210120FFF7A0F90446C4B9BDF800006E
:10153000734908820846408800F57A708860002068
:1015400048730520087300208873714908706C483F
:10155000807C042817D102206949887413E06B4805
:10156000007804280FDB0020654988730120684952
:1015700008706348807C042802D102206049887486
:1015800005205F49087344B14FF496705C49886048
:101590005E480078401C5D4908700BE15848407B6C
:1015A00030B101280DD002282AD0032875D188E057
:1015B0005348806810B9012051494873ABE0FAE004
:1015C000F6E051480068D0B14D488068B8B9FFF7DF
:1015D000EEF804469CB90120FFF706F9044674B9F9
:1015E0004FF47A7046498860022048734849087071
:1015F0004348807C042802D10220414988748AE053
:1016000041480068002859D03D488068002855D1DD
:10161000FFF7CDF80446002C50D10220FFF7E4F884
:101620000446002C4AD1FFF702F90446A4BBFFF799
:1016300063F90446FCB93248018A0220FFF779F9C0
:1016400004468CB903202E49487340F6B8308860B0
:10165000002088732E4908702948807C04282DD1E9
:1016600002202749887429E001202549487340F663
:10167000B830886022E00120254908702048807C2D
:10168000042802D102201E49887401201C49487395
:1016900040F6B830886011E000E03BE001201C49D2
:1016A00008701748807C042802D1022014498874ED
:1016B00001201349487340F6B83088602BE078E089
:1016C0002BE00F48806820B905200D4908730020E1
:1016D000887320E018ED00E000E400E0080000203E
:1016E0000A0000200C00002088100020EC100020D0
:1016F00000000020040000200000FA051000002077
:1017000020110020000C014010012142EE100020A9
:101710008B10002000BF00BF4CE0FD48407B20B193
:1017200001280CD0032840D136E0F948806828B958
:101730000020F84908700120F549487336E0F44864
:10174000806800B132E0F249088A0121FFF721F9EF
:10175000044634B90320EE4948734FF47A70886028
:1017600019E0EC480078401CEA4908704FF47A70A0
:10177000E7498860E748007803280CDB0120E64948
:101780000870E348807C042802D10220E049887474
:101790000320DF49487309E0DD48806820B905204F
:1017A000DB4908730020887300E000BF00BF01E040
:1017B00000BF00BF00BF38BD10B5D54890F880020B
:1017C000D34991F88112884214D0D14890F8800210
:1017D00028B94FF40051D14805F0F5FC04E04FF46E
:1017E0000051CE4805F0EDFCC94890F88002C84988
:1017F00081F8810210BD10B502460B46002100247D
:1018000000BF04E0505C2044C4B2481CC1B29942FD
:10181000F8DBE043C0B210BD2DE9FE4306460F469B
:1018200090461C4600250020009001900290AA20BE
:101830008DF800008DF801608DF802708DF803803E
:1018400020788DF8040060788DF80500A0788DF878
:10185000060007216846FFF7CEFF8DF807005520E8
:101860008DF8080000BF06E01DF80510AC4806F032
:1018700057F8681CC5B2082DF6DBBDE8FE832DE9DC
:10188000FC41002000900190AA208DF80000002665
:101890006946A44806F01CFC044614B9701EBDE855
:1018A000FC81607A552802D04FF0FF30F7E7002521
:1018B00004E0605D3044C6B2681CC5B20A2DF8DB96
:1018C000552E02D04FF0FF30E9E76778B81E0728A1
:1018D0007ED2DFE800F00904808B96AAC3000120C5
:1018E0008B4981F8B400D1E0A078FF2835D10025DC
:1018F00030E0617905EB450285481C308154A179BF
:1019000005EB450210444170E17905EB4502804842
:101910001C3010448170A17983484155E179203011
:101920004155405D00EB4000804901EB800041687B
:101930007D48303040F825101038405D00EB400005
:101940007A4901EB800081687748703040F82510B3
:10195000681CC5B2102DCCDB37E06179A07800EBB4
:1019600040026B481C308154A179A07800EB400202
:1019700067481C3010444170E179A07800EB4002C8
:1019800063481C3010448170A179A2786648815464
:10199000E179A27820308154405D00EB400063493A
:1019A00001EB80004168A2785F48303040F8221097
:1019B0001038405D00EB40005C4901EB800081681D
:1019C000A2785948703040F822101E20504900E09B
:1019D00051E008835AE0A0780A2806DC01204C492F
:1019E000887302200873A07808824FE0A0780A2844
:1019F00006DC01204649887303200873A07808821A
:101A000044E0A078FF280AD1002505E001214648DE
:101A1000C0304155681CC5B2102DF7DB04E0012130
:101A2000A2784148C030815430E0A078FF280CD122
:101A3000002507E000213C48C0304155E0384155C1
:101A4000681CC5B2102DF5DB07E00021A2783648EE
:101A5000C0308154A278E038815417E0A07810B1EA
:101A6000A078012803D1A078294981F880021E209E
:101A7000274908830AE00320274908702448807C0E
:101A8000042802D102202249887400BF00BF002030
:101A900005E710B52648008800F4004020B1FFF7A4
:101AA000EEFE00202249088010BD30B59BB00546EF
:101AB00038210DA806F06FFBFF2D04D116480078E1
:101AC0008DF8360008E0302211491C3101A806F0DB
:101AD00030FB11208DF83600AA208DF834008DF8E7
:101AE0003550002406E001A8015DE01C0DAA115448
:101AF000601CC4B2302CF6DB33210DA8FFF77BFE4F
:101B00008DF8670055208DF86800002418E000006B
:101B100020110020EE1000208B100020000C01404E
:101B200000480040C416002040120020A4100020ED
:101B3000021100200DA9085D04F051F9601CC4B227
:101B4000352CF7DB1BB030BD10B5FE48807C20B1D2
:101B5000022812D0042817D117E0FA4890F8B400F0
:101B6000012809D19020F849087008460078FFF74D
:101B70009CFF0420F34988740BE0FF20FFF795FFDA
:101B80000420F049887404E000BF0420ED49887403
:101B900000BF00BF10BD704710B5EA4890F80001C3
:101BA000082873D2DFE800F0041B1C5ACFFEFDFCAE
:101BB000E448D0F8C00088B9E24890F8400100EB52
:101BC0004000E24901EB80004068DE49C1F8500165
:101BD000022081F80001002081F8100150E14FE15E
:101BE000D84890F8200160B90121D94805F0E9FAF8
:101BF0000121D84805F0E7FA0320D24981F8000115
:101C000025E0D04890F8200101280CD10121D148CD
:101C100005F0D7FA0121CE4805F0D5FA0320C949CD
:101C200081F8000113E0C74890F8200102280ED186
:101C30000020C94908700121C54805F0C2FA0121F8
:101C4000C44805F0C0FA0420BE4981F80001BD482F
:101C500090F82001BB4981F8300111E1B94890F8B2
:101C60002001B84991F83011884210D00121B848BC
:101C700005F0A9FA0121B74805F0A5FA0020B149FD
:101C800081F80001C820C1F8C000F9E0F7E0AD48D4
:101C900090F8100110B1012852D11BE0A948D0F8EA
:101CA0005001B0B9A74890F8400100EB4000A749A7
:101CB00001EB80008068A349C1F89001012081F800
:101CC00010010121A24805F07EFA0121A14805F08A
:101CD0007AFA36E09B48D0F8900180BB994890F89A
:101CE000400100EB4000994901EB800040689549B4
:101CF000C1F85001002081F81001084690F8200139
:101D000060B90121924805F05CFA0121914805F083
:101D10005AFA03208B4981F8000110E0894890F8B5
:101D2000200101280BD101218A4805F04AFA01213E
:101D3000874805F048FA0320824981F8000100E055
:101D400000BF00BF9CE07F4890F820017D4991F8DA
:101D5000301188420CD001217D4805F034FA012170
:101D60007C4805F030FA0020764981F8000187E0D0
:101D7000744890F8100110B101286AD14AE0714806
:101D8000D0F85001D8B96F4890F8400100EB4000FE
:101D90006E4901EB800080686A49C1F8900102E059
:101DA0006CE06AE058E0012081F8100101216848E8
:101DB00005F009FA0121674805F005FA29E06148B4
:101DC000D0F8C00028BB0121644805F0E0F900BB51
:101DD0005C48408800F5FA705A49C1F8C0005E4876
:101DE000007858B901205C4908700121594805F074
:101DF000E8F90121564805F0E6F90AE000205649C5
:101E000008700121524805F0DCF90121514805F024
:101E1000DAF91FE04B48D0F89001C8B900204E49CC
:101E20000870484890F8400100EB4000474901EB3A
:101E3000800040684349C1F85001002081F810013A
:101E40000121434805F0BDF90121424805F0BBF9E5
:101E500000E000BF00BF13E03A48D0F8900158B945
:101E600001213C4805F0AFF90121394805F0ABF9F3
:101E70000720344981F8000102E001E000E000BFE2
:101E800000BF10BD10B52F4890F80101082858D2A6
:101E9000DFE800F0041B1C6BDDF3F2F12948D0F8F9
:101EA000C40088B9274890F8410100EB4000274959
:101EB00001EB800041682348C0F85411022180F8EA
:101EC0000111002180F811115CE15BE11D4890F8DF
:101ED000210160B902211E4805F073F902211D4855
:101EE00005F071F90321174880F8011125E0154824
:101EF00090F8210101280CD10221164805F061F962
:101F00000221134805F05FF903210E4880F8011102
:101F100013E00C4890F8210102280ED1002010494E
:101F2000087002210A4805F04CF90221094805F021
:101F30004AF90421034880F80111024890F8211160
:101F400010E01EE1201100208A100020A4100020C3
:101F500000180140001C0140EF1000200014014057
:101F6000F010002080F831110CE1FB4890F82111AD
:101F700090F8310181420FD00221F84805F023F991
:101F80000221F74805F01FF90021F34880F80111FC
:101F9000C821C0F8C410F5E0EF4890F8110110B165
:101FA000012851D11BE0EC48D0F85401B0B9EA48FF
:101FB00090F8410100EB4000EA4901EB80008168A4
:101FC000E548C0F89411012180F811110221E3487D
:101FD00005F0F9F80221E24805F0F5F835E0DE48B1
:101FE000D0F8940178BBDC4890F8410100EB400048
:101FF000DC4901EB80004168D748C0F8541100214A
:1020000080F8111190F8210160B90221D34805F040
:10201000D8F80221D24805F0D6F80321CE4880F83E
:10202000011110E0CC4890F8210101280BD10221C8
:10203000CB4805F0C6F80221C84805F0C4F80321D2
:10204000C54880F8011100E000BF00BF9AE0C24817
:1020500090F8211190F8310181420FD00221BF4840
:1020600005F0B1F80221BE4805F0ADF80021BA48EC
:1020700080F8011186E083E081E06FE0B64890F8D7
:10208000110110B1012866D146E0B348D0F85401DF
:10209000B8B9B14890F8410100EB4000B14901EBFB
:1020A00080008168AC48C0F89411012180F81111BA
:1020B0000221AA4805F087F80221A94805F083F813
:1020C00029E0A548D0F8C40028BB0221A64805F0A5
:1020D0005EF800BBA048408800F5FA709E49C1F840
:1020E000C400A248007858B90120A0490870022114
:1020F0009B4805F066F80221984805F064F80AE06C
:1021000000209A4908700221944805F05AF80221EB
:10211000934805F058F81FE08F48D0F89401C8B9EB
:102120000020924908708C4890F8410100EB400073
:102130008C4901EB800041688748C0F854110021A8
:1021400080F811110221854805F03BF802218448EE
:1021500005F039F800E000BF00BF13E07E48D0F87A
:10216000940158B902217E4805F02DF802217B48E0
:1021700005F029F80721784880F8011102E001E014
:1021800000E000BF00BF10BD10B5734890F8020119
:10219000082871D2DFE800F0041B1C59CCF0EFEEE8
:1021A0006D48D0F8C80088B96B4890F8420100EB40
:1021B00040006C4901EB800041686748C0F8581145
:1021C000022180F80211002180F8121159E158E132
:1021D000614890F8220160B90421604804F0F1FFE1
:1021E00004215F4804F0EFFF03215B4880F80211EF
:1021F00025E0594890F8220101280CD104215848C3
:1022000004F0DFFF0421554804F0DDFF03215248AC
:1022100080F8021113E0504890F8220102280ED1F4
:1022200000205349087004214C4804F0CAFF0421DF
:102230004B4804F0C8FF0421474880F80211464883
:1022400090F8221180F832111BE1434890F82211D6
:1022500090F83201814210D00421404804F0B3FFCD
:1022600004213F4804F0AFFF00213B4880F80211F1
:10227000C821C0F8C81004E102E1374890F8120103
:1022800010B1012851D11BE03348D0F85801B0B942
:10229000314890F8420100EB4000324901EB8000E8
:1022A00081682D48C0F89811012180F8121104218D
:1022B0002A4804F088FF0421294804F084FF35E00F
:1022C0002548D0F8980178BB234890F8420100EBEC
:1022D0004000244901EB800041681F48C0F85811B4
:1022E000002180F8121190F8220160B904211B48E6
:1022F00004F067FF04211A4804F065FF0321164823
:1023000080F8021110E0144890F8220101280BD146
:102310000421134804F055FF0421104804F053FF32
:1023200003210D4880F8021100E000BF00BFA8E0C3
:10233000094890F8221190F8320181421DD0042101
:10234000064804F040FF0421054804F03CFF00214A
:10235000014880F8021194E020110020001801408B
:10236000001C0140A410002000140140F0100020C7
:10237000F110002083E081E06FE0F94890F812014D
:1023800010B1012866D146E0F548D0F85801B8B937
:10239000F34890F8420100EB4000F24901EB800065
:1023A0008168EF48C0F89811012180F812110421CA
:1023B000ED4804F008FF0421EC4804F004FF29E094
:1023C000E748D0F8C80028BB0421E94804F0DFFE44
:1023D00000BBE348408800F5FA70E149C1F8C80045
:1023E000E448007858B90120E24908700421DF4828
:1023F00004F0E7FE0421DC4804F0E5FE0AE00020DA
:10240000DC4908700421D84804F0DBFE0421D748D9
:1024100004F0D9FE1FE0D248D0F89801C8B90020D6
:10242000D4490870CE4890F8420100EB4000CD49F5
:1024300001EB80004168CA48C0F85811002180F8BB
:1024400012110421C84804F0BCFE0421C74804F05E
:10245000BAFE00E000BF00BF13E0C148D0F8980109
:1024600058B90421C14804F0AEFE0421BE4804F06E
:10247000AAFE0721BA4880F8021102E001E000E05C
:1024800000BF00BF10BD10B5B54890F80301082883
:1024900071D2DFE800F0041B1C59CCFDFCFBB048F6
:1024A000D0F8CC0088B9AE4890F8430100EB40006A
:1024B000AC4901EB80004168A948C0F85C110221D9
:1024C00080F80311002180F813115AE159E1A44862
:1024D00090F8230160B90821A34804F072FE082196
:1024E000A24804F070FE03219D4880F8031125E006
:1024F0009B4890F8230101280CD108219B4804F047
:1025000060FE0821984804F05EFE0321944880F89C
:10251000031113E0924890F8230102280ED1002005
:10252000954908700821904804F04BFE08218F4817
:1025300004F049FE04218A4880F80311884890F885
:10254000231180F833111CE1854890F8231190F88D
:102550003301814210D00821834804F034FE082161
:10256000824804F030FE00217D4880F80311C82124
:10257000C0F8CC1005E103E1794890F8130110B1DF
:10258000012851D11BE07648D0F85C01B0B97448FD
:1025900090F8430100EB4000724901EB8000816834
:1025A0006F48C0F89C11012180F8131108216E4872
:1025B00004F009FE08216D4804F005FE35E0684886
:1025C000D0F89C0178BB664890F8430100EB4000CE
:1025D000644901EB800041686148C0F85C1100214A
:1025E00080F8131190F8230160B908215E4804F0C7
:1025F000E8FD08215D4804F0E6FD0321584880F815
:10260000031110E0564890F8230101280BD108214E
:10261000564804F0D6FD0821534804F0D4FD0321A8
:102620004F4880F8031100E000BF00BFA9E04C480C
:1026300090F8231190F8330181420CD008214A48C8
:1026400004F0C1FD0821494804F0BDFD00214448C3
:1026500080F8031195E0424890F8130110B1012869
:102660006AD14AE03E48D0F85C01D8B93C4890F8BD
:10267000430100EB40003B4901EB80008168384892
:10268000C0F89C11012180F8131102E077E075E099
:1026900055E00821344804F096FD0821334804F041
:1026A00092FD29E02E48D0F8CC0028BB0821304804
:1026B00004F06DFD00BB2A48408800F5FA702849F7
:1026C000C1F8CC002C48007858B901202A4908707C
:1026D0000821264804F075FD0821234804F073FD05
:1026E0000AE000202449087008211F4804F069FD11
:1026F00008211E4804F067FD1FE01948D0F89C012E
:10270000C8B900201C490870154890F8430100EB37
:102710004000144901EB800041681148C0F85C1189
:10272000002180F8131108210F4804F04AFD082108
:102730000E4804F048FD00E000BF00BF21E008485B
:10274000D0F89C0158B90821084804F03CFD082144
:10275000054804F038FD0721014880F8031110E016
:1027600020110020A410002000180140001C01408E
:1027700000140140F1100020F210002001E000E000
:1027800000BF00BF10BD10B5F84890F8040108283C
:1027900071D2DFE800F0041B1C59CCFDFCFBF348B0
:1027A000D0F8D00088B9F14890F8440100EB40001F
:1027B000EF4901EB80004168EC48C0F8601102214C
:1027C00080F80411002180F814114CE14BE1E74836
:1027D00090F8240160B91021E64804F0F2FC1021C1
:1027E000E54804F0F0FC0321E04880F8041125E0FE
:1027F000DE4890F8240101280CD11021DE4804F0B5
:10280000E0FC1021DB4804F0DEFC0321D74880F80F
:10281000041113E0D54890F8240102280ED10020BD
:10282000D64908701021D34804F0CBFC1021D248BF
:1028300004F0C9FC0421CD4880F80411CB4890F87D
:10284000241180F834110EE1C84890F8241190F852
:102850003401814210D01021C64804F0B4FC10218C
:10286000C54804F0B0FC0021C04880F80411C8211C
:10287000C0F8D010F7E0F5E0BC4890F8140110B1B2
:10288000012851D11BE0B948D0F86001B0B9B74870
:1028900090F8440100EB4000B54901EB80008168ED
:1028A000B248C0F8A011012180F814111021B148DC
:1028B00004F089FC1021B04804F085FC35E0AB48F9
:1028C000D0F8A00178BBA94890F8440100EB400083
:1028D000A74901EB80004168A448C0F860110021BD
:1028E00080F8141190F8240160B91021A14804F077
:1028F00068FC1021A04804F066FC03219B4880F886
:10290000041110E0994890F8240101280BD11021FE
:10291000994804F056FC1021964804F054FC032119
:10292000924880F8041100E000BF00BF9BE08F4890
:1029300090F8241190F8340181420CD010218D4878
:1029400004F041FC10218C4804F03DFC0021874834
:1029500080F8041187E0854890F8140110B101282F
:102960006AD14AE08148D0F86001D8B97F4890F830
:10297000440100EB40007E4901EB800081687B4808
:10298000C0F8A011012180F8141102E069E067E0AD
:1029900055E01021774804F016FC1021764804F029
:1029A00012FC29E07148D0F8D00028BB10217448EF
:1029B00004F0EDFB00BB6D48408800F5FA706B49F0
:1029C000C1F8D0006D48007858B901206B490870F3
:1029D0001021694804F0F5FB1021664804F0F3FB70
:1029E0000AE00020654908701021624804F0E9FB04
:1029F0001021614804F0E7FB1FE05C48D0F8A0011B
:102A0000C8B900205D490870584890F8440100EBAF
:102A10004000574901EB800041685448C0F86011FC
:102A2000002180F814111021524804F0CAFB102133
:102A3000514804F0C8FB00E000BF00BF13E04B4862
:102A4000D0F8A00158B910214B4804F0BCFB10216C
:102A5000484804F0B8FB0721444880F8041102E01C
:102A600001E000E000BF00BF10BD10B53F4890F886
:102A70000501082871D2DFE800F0041B1C59DBF1C6
:102A8000F0EF3A48D0F8D40088B9384890F84501BA
:102A900000EB4000364901EB800041683348C0F844
:102AA0006411022180F80511002180F815115AE106
:102AB00059E12E4890F8250160B920212D4804F0F5
:102AC00080FB20212C4804F07EFB0321274880F85E
:102AD000051125E0254890F8250101280CD1202179
:102AE000254804F06EFB2021224804F06CFB0321F2
:102AF0001E4880F8051113E01C4890F825010228B3
:102B00000ED100201F49087020211A4804F059FBFB
:102B10002021194804F057FB0421144880F80511BE
:102B2000124890F8251180F835111CE10F4890F8F3
:102B3000251190F83501814210D020210D4804F074
:102B400042FB20210C4804F03EFB0021074880F89E
:102B50000511C821C0F8D41005E103E1034890F83D
:102B6000150188B1012860D12AE000002011002061
:102B7000A410002000180140001C0140F3100020A8
:102B800000140140F4100020FB48D0F86401B0B9F3
:102B9000F94890F8450100EB4000F84901EB80004E
:102BA0008168F548C0F8A411012180F81511202191
:102BB000F34804F008FB2021F24804F004FB35E060
:102BC000ED48D0F8A40178BBEB4890F8450100EB44
:102BD0004000EA4901EB80004168E748C0F8641111
:102BE000002180F8151190F8250160B92021E448F2
:102BF00004F0E7FA2021E34804F0E5FA0321DE4877
:102C000080F8051110E0DC4890F8250101280BD16F
:102C10002021DC4804F0D5FA2021D94804F0D3FA69
:102C20000321D54880F8051100E000BF00BF9AE0FD
:102C3000D14890F8251190F8350181420FD020211C
:102C4000CF4804F0C0FA2021CE4804F0BCFA00219D
:102C5000C94880F8051186E083E081E06FE0C6484E
:102C600090F8150110B1012866D146E0C248D0F8AD
:102C70006401B8B9C04890F8450100EB4000BF4975
:102C800001EB80008168BC48C0F8A411012180F8E4
:102C900015112021BA4804F096FA2021B94804F011
:102CA00092FA29E0B448D0F8D40028BB2021B648D5
:102CB00004F06DFA00BBB048408800F5FA70AE49E8
:102CC000C1F8D400B148007858B90120AF49087064
:102CD0002021AC4804F075FA2021A94804F073FAC9
:102CE0000AE00020A94908702021A54804F069FAEB
:102CF0002021A44804F067FA1FE09F48D0F8A401FF
:102D0000C8B90020A14908709B4890F8450100EB24
:102D100040009A4901EB800041689748C0F864116F
:102D2000002180F815112021954804F04AFA20214D
:102D3000944804F048FA00E000BF00BF13E08E485A
:102D4000D0F8A40158B920218E4804F03CFA202183
:102D50008B4804F038FA0721874880F8051102E013
:102D600001E000E000BF00BF10BD10B5824890F840
:102D70000601082871D2DFE800F0041B1C59CCFDC5
:102D8000FCFB7D48D0F8D80088B97B4890F8460114
:102D900000EB4000794901EB800041687648C0F8BB
:102DA0006811022180F80611002180F816115CE1FB
:102DB0005BE1714890F8260160B94021704804F049
:102DC00000FA40216F4804F0FEF903216A4880F8B8
:102DD000061125E0684890F8260101280CD1402111
:102DE000684804F0EEF94021654804F0ECF903214D
:102DF000614880F8061113E05F4890F82601022828
:102E00000ED100206249087040215D4804F0D9F9D4
:102E100040215C4804F0D7F90421574880F8061196
:102E2000554890F8261180F836111EE1524890F866
:102E3000261190F83601814210D04021504804F00C
:102E4000C2F940214F4804F0BEF900214A4880F8F9
:102E50000611C821C0F8D81007E105E1464890F8EE
:102E6000160110B1012851D11BE04348D0F8680188
:102E7000B0B9414890F8460100EB40003F4901EBF2
:102E8000800081683C48C0F8A811012180F8161123
:102E900040213B4804F097F940213A4804F093F967
:102EA00035E03548D0F8A80178BB334890F84601A2
:102EB00000EB4000314901EB800041682E48C0F82A
:102EC0006811002180F8161190F8260160B94021A0
:102ED0002B4804F076F940212A4804F074F90321C4
:102EE000254880F8061110E0234890F826010128B3
:102EF0000BD14021234804F064F94021204804F01C
:102F000062F903211C4880F8061100E000BF00BFF1
:102F1000ABE0194890F8261190F8360181420CD0A8
:102F20004021174804F04FF94021164804F04BF9AE
:102F30000021114880F8061197E00F4890F816011B
:102F400010B101287AD159E00B48D0F8680190B946
:102F5000094890F8460100EB4000084901EB800069
:102F600081680548C0F8A811012180F8161111E008
:102F700079E077E065E016E020110020A410002041
:102F800000180140001C014000140140F410002012
:102F9000F51000204021FE4804F015F94021FD48BD
:102FA00004F011F929E0FC48D0F8D80028BB4021F2
:102FB000FA4804F0ECF800BBF748408800F5FA70D6
:102FC000F549C1F8D800F648007858B90120F4490D
:102FD00008704021EF4804F0F4F84021EC4804F078
:102FE000F2F80AE00020EE4908704021E84804F0B9
:102FF000E8F84021E74804F0E6F820E0E648D0F899
:10300000A801C8B90020E6490870E34890F84601D5
:1030100000EB4000E34901EB80004168DE48C0F866
:103020006811002180F816114021D94804F0C9F830
:103030004021D84804F0C7F801E0FFE700BF00BF17
:1030400013E0D548D0F8A80158B94021D14804F080
:10305000BAF84021CE4804F0B6F80721CE4880F8EF
:10306000061102E001E000E000BF00BF10BD10B596
:10307000C94890F80701082871D2DFE800F0041B66
:103080001C59CCFDFCFBC448D0F8DC0088B9C24810
:1030900090F8470100EB4000C24901EB8000416815
:1030A000BD48C0F86C11022180F80711002180F89A
:1030B00017114CE14BE1B84890F8270160B9802125
:1030C000B34804F07EF88021B24804F07CF8032174
:1030D000B14880F8071125E0AF4890F82701012892
:1030E0000CD18021AB4804F06CF88021A84804F092
:1030F0006AF80321A84880F8071113E0A64890F861
:10310000270102280ED10020A74908708021A0487D
:1031100004F057F880219F4804F055F804219E4898
:1031200080F807119C4890F8271180F837110EE1BC
:10313000994890F8271190F83701814210D08021EA
:10314000934804F040F88021924804F03CF80021B4
:10315000914880F80711C821C0F8DC10F7E0F5E0CD
:103160008D4890F8170110B1012851D11BE08A4811
:10317000D0F86C01B0B9884890F8470100EB4000E6
:10318000884901EB800081688348C0F8AC110121B7
:1031900080F8171180217E4804F015F880217D48C1
:1031A00004F011F835E07C48D0F8AC0178BB7A48DF
:1031B00090F8470100EB40007A4901EB800041683C
:1031C0007548C0F86C11002180F8171190F827019C
:1031D00060B980216E4803F0F4FF80216D4803F050
:1031E000F2FF03216C4880F8071110E06A4890F85C
:1031F000270101280BD18021664803F0E2FF8021DE
:10320000634803F0E0FF0321634880F8071100E002
:1032100000BF00BF9BE0604890F8271190F837018D
:1032200081420CD080215A4803F0CDFF80215948BB
:1032300003F0C9FF0021584880F8071187E056487D
:1032400090F8170110B101286AD14AE05248D0F82D
:103250006C01D8B9504890F8470100EB4000514943
:1032600001EB800081684C48C0F8AC11012180F866
:10327000171102E069E067E055E08021444803F05F
:10328000A2FF8021434803F09EFF29E04248D0F886
:10329000DC0028BB8021414803F079FF00BB3E4899
:1032A000408800F5FA703C49C1F8DC003E480078DF
:1032B00058B901203C4908708021364803F081FF4D
:1032C0008021334803F07FFF0AE000203649087070
:1032D00080212F4803F075FF80212E4803F073FFF3
:1032E0001FE02D48D0F8AC01C8B900202E49087065
:1032F000294890F8470100EB40002A4901EB800083
:1033000041682548C0F86C11002180F81711802110
:103310001F4803F056FF80211E4803F054FF00E0D1
:1033200000BF00BF13E01C48D0F8AC0158B98021A1
:10333000184803F048FF8021154803F044FF072197
:10334000154880F8071102E001E000E000BF00BF6F
:1033500010BD10B5104890F8080108286FD2DFE8BA
:1033600000F0042B2C6FE7FDFCFB0B48D0F8E000CD
:1033700008BB094890F8480100EB4000094901EBFF
:10338000800041680448C0F8701102210EE000007E
:1033900000180140001C01402011002000140140D1
:1033A000F5100020A4100020F610002080F808116D
:1033B000002180F8181162E161E1FE4890F82801CF
:1033C00070B94FF48071FC4803F0FBFE4FF480713C
:1033D000FA4803F0F8FE0321F64880F8081128E0C7
:1033E000F44890F8280101280DD10102F34803F0B8
:1033F000E8FE4FF48071F04803F0E5FE0321ED484C
:1034000080F8081115E0EB4890F82801022810D147
:103410000020EB4908704FF48071E74803F0D1FEBB
:103420004FF48071E54803F0CEFE0421E14880F8B6
:103430000811E04890F8281180F838111FE11DE1CB
:10344000DC4890F8281190F83801814211D04FF4EF
:103450008071D94803F0B7FE4FF48071D74803F06C
:10346000B2FE0021D34880F80811C821C0F8E0104E
:1034700005E1D04890F8180110B1012855D11CE0A1
:10348000CC48D0F87001B8B9CA4890F8480100EBB0
:103490004000CC4901EB80008168C648C0F8B011FB
:1034A000012180F818110902C34803F08CFE4FF483
:1034B0008071C24803F087FE38E0BE48D0F8B00102
:1034C000F8B9BC4890F8480100EB4000BD4901EB59
:1034D00080004168B748C0F87011002180F81811C9
:1034E00090F8280170B94FF48071B34803F069FE79
:1034F0004FF48071B14803F066FE0321AD4880F8B7
:10350000081111E0AB4890F8280101280CD1010204
:10351000AA4803F056FE4FF48071A74803F053FE0B
:103520000321A44880F8081100E000BF00BFA6E016
:10353000A04890F8281190F83801814212D04FF439
:1035400080719D4803F03FFE4FF480719B4803F06B
:103550003AFE0021974802E08FE08DE079E080F8A4
:1035600008118CE0934890F8180110B101286DD132
:103570004BE09048D0F87001C0B98E4890F84801EF
:1035800000EB40008F4901EB800081688948C0F85A
:10359000B011012180F818110902874803F013FEC9
:1035A0004FF48071854803F00EFE2DE08148D0F87D
:1035B000E00048BB4FF48071834803F0E8FD18BB7E
:1035C0007C48408800F5FA707A49C1F8E0007C48F0
:1035D000007860B901207A4908700102774803F049
:1035E000F0FD4FF48071744803F0EDFD0CE0002015
:1035F000734908704FF480716F4803F0E2FD4FF497
:1036000080716E4803F0DFFD21E06A48D0F8B00118
:10361000D8B900206A490870664890F8480100EB64
:103620004000684901EB800041686248C0F87011B1
:10363000002180F818114FF480715F4803F0C1FD3C
:103640004FF480715D4803F0BEFD00E000BF00BF95
:1036500015E05848D0F8B00168B94FF48071574868
:1036600003F0B1FD4FF48071534803F0ACFD072126
:10367000504880F8081102E001E000E000BF00BF00
:1036800010BD10B54B4890F80901082878D2DFE842
:1036900000F0041B1C5EE6FCFBFA4648D0F8E40090
:1036A00088B9444890F8490100EB4000454901EBD6
:1036B000800041683F48C0F87411022180F8091168
:1036C000002180F8191171E170E13A4890F8290160
:1036D00070B94FF40071384803F073FD4FF4007176
:1036E000364803F070FD0321324880F8091128E0C4
:1036F000304890F8290101280DD141022F4803F0EC
:1037000060FD4FF400712C4803F05DFD0321294852
:1037100080F8091115E0274890F82901022810D1F6
:1037200000202A4908704FF40071234803F049FD36
:103730004FF40071214803F046FD04211D4880F834
:1037400009111C4890F8291180F839112EE1194807
:1037500090F8291190F83901814212D04FF400718C
:10376000154803F030FD4FF40071144803F02BFDB1
:103770000021104880F80911C821C0F8E41015E1B3
:1037800013E10C4890F8190110B1012864D12BE025
:103790000848D0F8740130BB064890F8490100EBA6
:1037A0004000084901EB800081680248C0F8B4116C
:1037B00001210DE02011002000180140001C0140F3
:1037C000F7100020A410002000140140F810002081
:1037D00080F819114902FE4803F0F5FC4FF400711E
:1037E000FC4803F0F0FC38E0FB48D0F8B401F8B92D
:1037F000F94890F8490100EB4000F84901EB8000DE
:103800004168F548C0F87411002180F8191190F84A
:10381000290170B94FF40071ED4803F0D2FC4FF468
:103820000071EC4803F0CFFC0321EB4880F809114C
:1038300011E0E94890F8290101280CD14102E5483E
:1038400003F0BFFC4FF40071E14803F0BCFC03211E
:10385000E14880F8091100E000BF00BFA6E0DE48A3
:1038600090F8291190F83901814212D04FF400717B
:10387000D74803F0A8FC4FF40071D64803F0A3FC2E
:103880000021D54802E08FE08DE079E080F8091151
:103890008CE0D14890F8190110B101286DD14BE0AE
:1038A000CD48D0F87401C0B9CB4890F8490100EB7D
:1038B0004000CA4901EB80008168C748C0F8B411D4
:1038C000012180F819114902C14803F07CFC4FF432
:1038D0000071C04803F077FC2DE0BF48D0F8E40049
:1038E00048BB4FF40071BE4803F051FC18BBBA4806
:1038F000408800F5FA70B849C1F8E400B94800788A
:1039000060B90120B74908704102B24803F059FC80
:103910004FF40071AE4803F056FC0CE00020B149B2
:1039200008704FF40071AA4803F04BFC4FF400718B
:10393000A84803F048FC21E0A748D0F8B401D8B962
:103940000020A8490870A44890F8490100EB400005
:10395000A24901EB800041689F48C0F87411002122
:1039600080F819114FF40071994803F02AFC4FF4C4
:103970000071984803F027FC00E000BF00BF15E08D
:103980009548D0F8B40168B94FF40071914803F03C
:103990001AFC4FF400718E4803F015FC07218E4885
:1039A00080F8091102E001E000E000BF00BF10BD97
:1039B00010B5894890F80A01082878D2DFE800F0AD
:1039C000041B1C5ED7EFEEED8348D0F8E80088B901
:1039D000814890F84A0100EB4000804901EB8000EB
:1039E00041687D48C0F87811022180F80A11002151
:1039F00080F81A1171E170E1774890F82A0170B9E6
:103A00004FF48061724803F0DCFB4FF48061714831
:103A100003F0D9FB0321704880F80A1128E06E48B2
:103A200090F82A0101280DD181026A4803F0C9FBF0
:103A30004FF48061664803F0C6FB0321664880F8B6
:103A40000A1115E0644890F82A01022810D10020DC
:103A5000654908704FF480615D4803F0B2FB4FF494
:103A600080615C4803F0AFFB04215B4880F80A11D9
:103A7000594890F82A1180F83A112EE1564890F8EA
:103A80002A1190F83A01814212D04FF480615048D7
:103A900003F099FB4FF480614E4803F094FB002142
:103AA0004D4880F80A11C821C0F8E81015E113E16B
:103AB000494890F81A0110B1012855D11CE0464838
:103AC000D0F87801B8B9444890F84A0100EB4000BA
:103AD000424901EB800081683F48C0F8B8110121DC
:103AE00080F81A1189023A4803F06DFB4FF48061A7
:103AF000384803F068FB38E03748D0F8B801F8B927
:103B0000354890F84A0100EB4000344901EB800051
:103B100041683148C0F87811002180F81A1190F8F6
:103B20002A0170B94FF48061294803F04AFB4FF431
:103B30008061284803F047FB0321274880F80A11D9
:103B400011E0254890F82A0101280CD18102214872
:103B500003F037FB4FF480611D4803F034FB032171
:103B60001D4880F80A1100E000BF00BFB5E01A4808
:103B700090F82A1190F83A01814211D04FF48061F7
:103B8000134803F020FB4FF48061124803F01BFB45
:103B90000021114880F80A119FE09CE09AE086E03D
:103BA0000D4890F81A0110B101287DD15AE00A4859
:103BB000D0F8780138BB084890F84A0100EB400083
:103BC000064901EB800081680348C0F8B8110DE098
:103BD00000180140001C014020110020A41000200A
:103BE00000140140F8100020F9100020012180F895
:103BF0001A118902FB4803F0E6FA4FF48061FA4893
:103C000003F0E1FA2DE0F948D0F8E80048BB4FF4A2
:103C10008061F74803F0BBFA18BBF448408800F510
:103C2000FA70F249C1F8E800F248007860B9012062
:103C3000F04908708102EC4803F0C3FA4FF4806148
:103C4000E84803F0C0FA0CE00020EA4908704FF49D
:103C50008061E44803F0B5FA4FF48061E24803F074
:103C6000B2FA22E0E148D0F8B801D8B90020E14921
:103C70000870DE4890F84A0100EB4000DE4901EB95
:103C800080004168D948C0F87811002180F81A11E5
:103C90004FF48061D34803F094FA4FF48061D24826
:103CA00003F091FA01E0FFE700BF00BF15E0CF4845
:103CB000D0F8B80168B94FF48061CB4803F083FABB
:103CC0004FF48061C74803F07EFA0721C74880F8A7
:103CD0000A1102E001E000E000BF00BF10BD10B516
:103CE000C24890F80B01082878D2DFE800F0041BE6
:103CF0001C5ED7EFEEEDBD48D0F8EC0088B9BB48AC
:103D000090F84B0100EB4000BB4901EB800041689B
:103D1000B648C0F87C11022180F80B11002180F810
:103D20001B1170E16FE1B14890F82B0170B94FF4AD
:103D30000061AC4803F045FA4FF40061AA4803F073
:103D400042FA0321A94880F80B1128E0A74890F80F
:103D50002B0101280DD1C102A34803F032FA4FF420
:103D60000061A04803F02FFA0321A04880F80B114E
:103D700015E09E4890F82B01022810D100209F49A1
:103D800008704FF40061974803F01BFA4FF400618C
:103D9000954803F018FA0421944880F80B119348D1
:103DA00090F82B1180F83B112DE1904890F82B11E1
:103DB00090F83B01814212D04FF40061894803F032
:103DC00002FA4FF40061884803F0FDF900218748AA
:103DD00080F80B11C821C0F8EC1014E112E18348FF
:103DE00090F81B0110B1012855D11CE07F48D0F894
:103DF0007C01B8B97D4890F84B0100EB40007E494A
:103E000001EB800081687948C0F8BC11012180F87D
:103E10001B11C902734803F0D6F94FF400617248D0
:103E200003F0D1F938E07148D0F8BC01F8B96F4817
:103E300090F84B0100EB40006F4901EB80004168B6
:103E40006A48C0F87C11002180F81B1190F82B0102
:103E500070B94FF40061634803F0B3F94FF40061A7
:103E6000614803F0B0F90321604880F80B1111E0BC
:103E70005E4890F82B0101280CD1C1025A4803F08A
:103E8000A0F94FF40061574803F09DF9032157480A
:103E900080F80B1100E000BF00BFB4E0534890F879
:103EA0002B1190F83B01814211D04FF400614D4835
:103EB00003F089F94FF400614B4803F084F90021C5
:103EC0004A4880F80B119EE09BE099E076E0474875
:103ED00090F81B0110B101286DD14BE04348D0F898
:103EE0007C01C0B9414890F84B0100EB40004249C9
:103EF00001EB800081683D48C0F8BC11012180F8C9
:103F00001B11C902374803F05EF94FF400613648CF
:103F100003F059F92DE03548D0F8EC0048BB4FF4D8
:103F20000061334803F033F918BB3048408800F58E
:103F3000FA702E49C1F8EC003048007860B90120D1
:103F40002E490870C102284803F03BF94FF4006184
:103F5000244803F038F90CE00020284908704FF499
:103F60000061204803F02DF94FF400611E4803F072
:103F70002AF921E01D48D0F8BC01D8B900201F491A
:103F800008701A4890F84B0100EB40001A4901EB09
:103F9000800041681548C0F87C11002180F81B1191
:103FA0004FF400610F4803F00CF94FF400610E4824
:103FB00003F009F900E000BF00BF24E00B48D0F88F
:103FC000BC0168B94FF40061074803F0FCF84FF4F6
:103FD0000061044803F0F7F80721044880F80B114A
:103FE00011E0000000180140001C014020110020D9
:103FF00000140140F9100020A4100020FA10002045
:1040000001E000E000BF00BF10BD10B5FD4890F812
:104010000C01082878D2DFE800F0041B1C5ED7EF03
:10402000EEEDF848D0F8F00088B9F64890F84C0169
:1040300000EB4000F44901EB80004168F148C0F812
:104040008011022180F80C11002180F81C1161E11F
:1040500060E1EC4890F82C0170B94FF48051EB48C6
:1040600003F0AFF84FF48051E94803F0ACF80321B6
:10407000E44880F80C1128E0E24890F82C0101286F
:104080000DD10103E24803F09CF84FF48051DF4862
:1040900003F099F80321DB4880F80C1115E0D948AA
:1040A00090F82C01022810D10020DA4908704FF452
:1040B0008051D64803F085F84FF48051D44803F07E
:1040C00082F80421CF4880F80C11CE4890F82C11CA
:1040D00080F83C111EE1CB4890F82C1190F83C017F
:1040E000814212D04FF48051C84803F06CF84FF46D
:1040F0008051C74803F067F80021C24880F80C11CE
:10410000C821C0F8F01005E103E1BE4890F81C0199
:1041100010B1012855D11CE0BA48D0F88001B8B9D7
:10412000B84890F84C0100EB4000B74901EB800023
:104130008168B448C0F8C011012180F81C1109033E
:10414000B24803F040F84FF48051B14803F03BF817
:1041500038E0AC48D0F8C001F8B9AA4890F84C0152
:1041600000EB4000A84901EB80004168A548C0F879
:104170008011002180F81C1190F82C0170B94FF4C7
:104180008051A24803F01DF84FF48051A04803F07D
:104190001AF803219B4880F80C1111E0994890F817
:1041A0002C0101280CD10103994803F00AF84FF4BF
:1041B0008051964803F007F80321924880F80C11CB
:1041C00000E000BF00BFA5E08E4890F82C1190F8E9
:1041D0003C01814211D04FF480518C4802F0F3FF32
:1041E0004FF480518A4802F0EEFF0021854880F8A4
:1041F0000C118FE08CE08AE076E0824890F81C0198
:1042000010B101286DD14BE07E48D0F88001C0B9D3
:104210007C4890F84C0100EB40007B4901EB8000AA
:1042200081687848C0F8C011012180F81C11090389
:10423000764802F0C8FF4FF48051754802F0C3FF82
:104240002DE07048D0F8F00048BB4FF48051724820
:1042500002F09DFF18BB6B48408800F5FA70694971
:10426000C1F8F0006B48007860B901206949087016
:104270000103674802F0A5FF4FF48051634802F044
:10428000A2FF0CE00020634908704FF480515F48A2
:1042900002F097FF4FF480515D4802F094FF21E057
:1042A0005848D0F8C001D8B900205A49087055487C
:1042B00090F84C0100EB4000534901EB800041684D
:1042C0005048C0F88011002180F81C114FF4805133
:1042D0004E4802F076FF4FF480514D4802F073FFD4
:1042E00000E000BF00BF15E04648D0F8C00168B943
:1042F0004FF48051464802F066FF4FF48051434826
:1043000002F061FF07213F4880F80C1102E001E054
:1043100000E000BF00BF10BD10B53A4890F80D0195
:1043200008287DD2DFE800F0041B1C5EE6FEFDFCE1
:104330003448D0F8F40088B9324890F84D0100EBC9
:104340004000314901EB800041682E48C0F88411DB
:10435000022180F80D11002180F81D1170E16FE13C
:10436000284890F82D0170B94FF40051274802F009
:1043700028FF4FF40051264802F025FF0321214871
:1043800080F80D1128E01F4890F82D0101280DD16B
:1043900041031F4802F015FF4FF400511B4802F083
:1043A00012FF0321174880F80D1115E0154890F809
:1043B0002D01022810D10020184908704FF4005137
:1043C000124802F0FEFE4FF40051114802F0FBFECD
:1043D00004210C4880F80D110A4890F82D1180F83E
:1043E0003D112DE1074890F82D1190F83D018142D3
:1043F00021D04FF40051054802F0E5FE4FF4005182
:1044000003480EE020110020A410002000180140F5
:10441000001C0140FB10002000140140FC10002093
:104420000DE102F0D0FE0021FE4880F80D11C821F8
:10443000C0F8F41004E1FB4890F81D0110B1012808
:1044400055D11CE0F748D0F88401B8B9F54890F888
:104450004D0100EB4000F44901EB80008168F14818
:10446000C0F8C411012180F81D114903EF4802F082
:10447000AAFE4FF40051EE4802F0A5FE38E0E948EC
:10448000D0F8C401F8B9E74890F84D0100EB4000BE
:10449000E54901EB80004168E248C0F88411002141
:1044A00080F81D1190F82D0170B94FF40051DF48CC
:1044B00002F087FE4FF40051DD4802F084FE032134
:1044C000D84880F80D1111E0D64890F82D01012848
:1044D0000CD14103D64802F074FE4FF40051D3488A
:1044E00002F071FE0321CF4880F80D1100E000BFFB
:1044F00000BFA5E0CB4890F82D1190F83D01814216
:1045000011D04FF40051C94802F05DFE4FF4005144
:10451000C74802F058FE0021C24880F80D118FE014
:104520008CE08AE076E0BF4890F81D0110B10128C8
:104530006DD14BE0BB48D0F88401C0B9B94890F8C0
:104540004D0100EB4000B84901EB80008168B5489F
:10455000C0F8C411012180F81D114903B34802F0CD
:1045600032FE4FF40051B24802F02DFE2DE0AD486E
:10457000D0F8F40048BB4FF40051AE4802F007FEFB
:1045800018BBA848408800F5FA70A649C1F8F400A5
:10459000A948007860B90120A74908704103A448E0
:1045A00002F00FFE4FF40051A04802F00CFE0CE0A8
:1045B0000020A14908704FF400519C4802F001FE10
:1045C0004FF400519A4802F0FEFD21E09548D0F8E2
:1045D000C401D8B9002098490870924890F84D015C
:1045E00000EB4000904901EB800041688D48C0F825
:1045F0008411002180F81D114FF400518B4802F006
:10460000E0FD4FF400518A4802F0DDFD00E000BFFC
:1046100000BF15E08348D0F8C40168B94FF40051D9
:10462000834802F0D0FD4FF40051804802F0CBFDEA
:1046300007217C4880F80D1102E001E000E000BF96
:1046400000BF10BD10B5774890F80E01082878D249
:10465000DFE800F0041B1C5ED7F7F6E77148D0F8DE
:10466000F80088B96F4890F84E0100EB40006E49A1
:1046700001EB800041686B48C0F88811022180F886
:104680000E11002180F81E1170E16FE1654890F86D
:104690002E0170B94FF48041644802F092FD4FF44E
:1046A0008041634802F08FFD03215E4880F80E11BF
:1046B00028E05C4890F82E0101280DD181035C4868
:1046C00002F07FFD4FF48041584802F07CFD032149
:1046D000544880F80E1115E0524890F82E01022837
:1046E00010D10020554908704FF480414F4802F026
:1046F00068FD4FF480414E4802F065FD04214948B1
:1047000080F80E11474890F82E1180F83E112DE1E7
:10471000444890F82E1190F83E01814212D04FF497
:104720008041424802F04FFD4FF48041404802F082
:104730004AFD00213B4880F80E11C821C0F8F8104E
:1047400014E112E1374890F81E0110B1012855D14B
:104750001CE03448D0F88801B8B9324890F84E01CE
:1047600000EB4000304901EB800081682D48C0F823
:10477000C811012180F81E1189032C4802F023FD85
:104780004FF480412A4802F01EFD38E02548D0F859
:10479000C801F8B9234890F84E0100EB40002249C7
:1047A00001EB800041681F48C0F88811002180F8A3
:1047B0001E1190F82E0170B94FF480411B4802F091
:1047C00000FD4FF480411A4802F0FDFC032115481A
:1047D00080F80E1111E0134890F82E0101280CD139
:1047E0008103134802F0EDFC4FF480410F4802F0C2
:1047F000EAFC03210B4880F80E1100E000BF00BF67
:10480000B4E0084890F82E1190F83E01814220D083
:104810004FF48041054802F0D6FC4FF48041044833
:1048200010E0A1E020110020A41000200018014099
:10483000001C014000140140FC100020FD1000206D
:1048400091E07DE002F0BFFC0021FE4880F80E11EF
:104850008CE0FC4890F81E0110B101286DD14BE0AE
:10486000F848D0F88801C0B9F64890F84E0100EB3E
:104870004000F54901EB80008168F248C0F8C8119A
:10488000012180F81E118903F04802F09CFC4FF4CE
:104890008041EF4802F097FC2DE0EA48D0F8F8009C
:1048A00048BB4FF48041EB4802F071FC18BBE5486F
:1048B000408800F5FA70E349C1F8F800E64800784E
:1048C00060B90120E44908708103E14802F079FCF5
:1048D0004FF48041DD4802F076FC0CE00020DE4918
:1048E00008704FF48041D94802F06BFC4FF48041CE
:1048F000D74802F068FC21E0D248D0F8C801D8B906
:104900000020D5490870CF4890F84E0100EB4000D8
:10491000CD4901EB80004168CA48C0F888110021E8
:1049200080F81E114FF48041C84802F04AFC4FF451
:104930008041C74802F047FC00E000BF00BF15E01F
:10494000C048D0F8C80168B94FF48041C04802F0AF
:104950003AFC4FF48041BD4802F035FC0721B948CC
:1049600080F80E1102E001E000E000BF00BF10BDC2
:1049700010B5B44890F80F01082878D2DFE800F0AD
:10498000041B1C5ED7EFEEEDAE48D0F8FC0088B9F2
:10499000AC4890F84F0100EB4000AB4901EB8000C0
:1049A0004168A848C0F88C11022180F80F1100213D
:1049B00080F81F1172E171E1A24890F82F0170B9DF
:1049C0004FF40041A14802F0FCFB4FF40041A04825
:1049D00002F0F9FB03219B4880F80F1128E0994869
:1049E00090F82F0101280DD1C103994802F0E9FB8D
:1049F0004FF40041954802F0E6FB0321914880F80E
:104A00000F1115E08F4890F82F01022810D10020D7
:104A1000924908704FF400418C4802F0D2FB4FF4E9
:104A200000418B4802F0CFFB0421864880F80F112B
:104A3000844890F82F1180F83F112FE1814890F8B9
:104A40002F1190F83F01814212D04FF400417F486E
:104A500002F0B9FB4FF400417D4802F0B4FB0021A5
:104A6000784880F80F11C821C0F8FC1016E114E155
:104A7000744890F81F0110B1012855D11CE071480D
:104A8000D0F88C01B8B96F4890F84F0100EB4000A6
:104A90006D4901EB800081686A48C0F8CC110121A2
:104AA00080F81F11C903694802F08DFB4FF40041E3
:104AB000674802F088FB38E06248D0F8CC01F8B9CA
:104AC000604890F84F0100EB40005F4901EB800027
:104AD00041685C48C0F88C11002180F81F1190F8E3
:104AE0002F0170B94FF40041584802F06AFB4FF4AF
:104AF0000041574802F067FB0321524880F80F112C
:104B000011E0504890F82F0101280CD1C103504802
:104B100002F057FB4FF400414C4802F054FB0321D4
:104B2000484880F80F1100E000BF00BFB6E04548DC
:104B300090F82F1190F83F01814211D04FF40041BD
:104B4000424802F040FB4FF40041414802F03BFB79
:104B500000213C4880F80F11A0E09DE09BE087E039
:104B6000384890F81F0110B101287ED14BE035483C
:104B7000D0F88C01C0B9334890F84F0100EB4000E9
:104B8000314901EB800081682E48C0F8CC11012129
:104B900080F81F11C9032D4802F015FB4FF40041A6
:104BA0002B4802F010FB2DE02648D0F8FC0048BB53
:104BB0004FF40041274802F0EAFA18BB2148408828
:104BC00000F5FA701F49C1F8FC002448007860B96C
:104BD000012022490870C1031D4802F0F2FA4FF487
:104BE00000411A4802F0EFFA0CE000201B4908705F
:104BF0004FF40041154802F0E4FA4FF40041144824
:104C000002F0E1FA32E00F48D0F8CC0148BB0020B6
:104C1000124908700B4890F84F0100EB40000A4918
:104C200001EB800041680748C0F88C11002180F832
:104C30001F114FF40041054802F0C3FA4FF4004140
:104C400003480FE020110020A410002000180140AC
:104C5000001C014000140140FD100020FE10002047
:104C600003E001E002F0AFFA00E000BF00BF15E092
:104C7000FE48D0F8CC0168B94FF40041FC4802F07E
:104C8000A2FA4FF40041FB4802F09DFA0721F748D1
:104C900080F80F1102E001E000E000BF00BF10BD8E
:104CA00010B5F24890F8D00110B1012851D13EE082
:104CB000EE4890F8E001ED4991F8F011884235D0C6
:104CC000EA4890F8E001012822D1E848D0F89001A4
:104CD00018B10020E549C1F890010121E64802F031
:104CE00056FA18BB2820E149C1F80002C1F890012A
:104CF000012081F8D001052081F80001084690F8D4
:104D0000E00181F8F0014FF47A60C1F840020DE053
:104D1000D64890F8E001D54981F8F0010121D74843
:104D200002F051FA0020D149C1F8400212E0CF4808
:104D3000D0F8000260B90121CF4802F028FA38B952
:104D40000121CE4802F03DFA0020C84981F8D00187
:104D500000E000BF00BF10BD10B5C44890F8D101FD
:104D600010B101284ED13BE0C04890F8E11190F815
:104D7000F101814233D0BD4890F8E101012821D1F1
:104D8000BA48D0F8940118B10021B848C0F894117D
:104D90000221B94802F0FBF908BB2821B348C0F84A
:104DA0000412C0F89411012180F8D111052180F876
:104DB000011190F8E11180F8F1114FF47A61C0F817
:104DC00044120CE0A94890F8E11180F8F111022199
:104DD000AA4802F0F8F90021A448C0F8441212E0F1
:104DE000A248D0F8040260B90221A34802F0CFF92A
:104DF00038B90221A14802F0E4F900219B4880F86B
:104E0000D11100E000BF00BF10BD10B5974890F869
:104E1000D20110B101284ED13BE0944890F8E21144
:104E200090F8F201814233D0904890F8E2010128D5
:104E300021D18E48D0F8980118B100218B48C0F8D4
:104E4000981104218C4802F0A2F908BB2821874858
:104E5000C0F80812C0F89811012180F8D21105217C
:104E600080F8021190F8E21180F8F2114FF47A61A3
:104E7000C0F848120CE07D4890F8E21180F8F21179
:104E800004217E4802F09FF900217848C0F84812BA
:104E900012E07648D0F8080260B90421764802F0A2
:104EA00076F938B90421754802F08BF900216F4872
:104EB00080F8D21100E000BF00BF10BD10B56B48F4
:104EC00090F8D30110B101284ED13BE0674890F82B
:104ED000E31190F8F301814233D0644890F8E30184
:104EE000012821D16148D0F89C0118B100215F4808
:104EF000C0F89C110821604802F049F908BB28213C
:104F00005A48C0F80C12C0F89C11012180F8D31146
:104F1000052180F8031190F8E31180F8F3114FF4A4
:104F20007A61C0F84C120CE0504890F8E31180F818
:104F3000F3110821514802F046F900214B48C0F80E
:104F40004C1212E04948D0F80C0260B908214A48D6
:104F500002F01DF938B90821484802F032F9002161
:104F6000424880F8D31100E000BF00BF10BD10B56B
:104F70003E4890F8D40110B101284ED13BE03B48A7
:104F800090F8E41190F8F401814233D0374890F85A
:104F9000E401012821D13548D0F8A00118B1002141
:104FA0003248C0F8A0111021334802F0F0F808BBD5
:104FB00028212E48C0F81012C0F8A011012180F855
:104FC000D411052180F8041190F8E41180F8F4114F
:104FD0004FF47A61C0F850120CE0244890F8E411C4
:104FE00080F8F4111021254802F0EDF800211F4847
:104FF000C0F8501212E01D48D0F8100260B910211C
:105000001D4802F0C4F838B910211C4802F0D9F844
:105010000021164880F8D41100E000BF00BF10BD89
:1050200010B5124890F8D50110B1012859D146E0C9
:105030000E4890F8E51190F8F50181423ED00B48FA
:1050400090F8E50101282CD10848D0F8A40118B146
:1050500000210648C0F8A4112021074802F097F863
:1050600060BB28210148C0F8141209E0201100207B
:10507000001C0140001801400014014000200140C4
:10508000C0F8A411012180F8D511052180F805117F
:1050900090F8E51180F8F5114FF47A61C0F85412D8
:1050A0000CE0FA4890F8E51180F8F5112021F84855
:1050B00002F089F80021F548C0F8541212E0F348D4
:1050C000D0F8140260B92021F24802F060F838B933
:1050D0002021EF4802F075F80021EC4880F8D51146
:1050E00000E000BF00BF10BD10B5E84890F8D60141
:1050F00010B101284ED13BE0E44890F8E61190F859
:10510000F601814233D0E14890F8E601012821D12F
:10511000DE48D0F8A80118B10021DC48C0F8A81179
:105120004021DC4802F033F808BB2821D748C0F8FA
:105130001812C0F8A811012180F8D611052180F8B5
:10514000061190F8E61180F8F6114FF47A61C0F874
:1051500058120CE0CD4890F8E61180F8F611402185
:10516000CB4802F030F80021C848C0F8581212E0CD
:10517000C648D0F8180260B94021C64802F007F8C6
:1051800038B94021C24802F01CF80021BF4880F81D
:10519000D61100E000BF00BF10BD10B5BB4890F8AD
:1051A000D70110B101284ED13BE0B84890F8E71183
:1051B00090F8F701814233D0B44890F8E701012814
:1051C00021D1B248D0F8AC0118B10021AF48C0F8E5
:1051D000AC118021AF4801F0DAFF08BB2821AB48B1
:1051E000C0F81C12C0F8AC11012180F8D7110521BC
:1051F00080F8071190F8E71180F8F7114FF47A6101
:10520000C0F85C120CE0A14890F8E71180F8F711A3
:1052100080219F4801F0D7FF00219C48C0F85C1214
:1052200012E09A48D0F81C0260B98021994801F038
:10523000AEFF38B98021964801F0C3FF00219348A2
:1052400080F8D71100E000BF00BF10BD10B58F4837
:1052500090F8D80110B1012852D13DE08B4890F868
:10526000E81190F8F801814235D0884890F8E801BB
:10527000012822D18548D0F8B00118B10021834817
:10528000C0F8B0114FF48071824801F080FF10BB6C
:1052900028217E48C0F82012C0F8B011012180F802
:1052A000D811052180F8081190F8E81180F8F8115C
:1052B0004FF47A61C0F860120DE0744890F8E8117C
:1052C00080F8F8114FF48071714801F07CFF0021E3
:1052D0006E48C0F8601214E06C48D0F8200270B933
:1052E0004FF480716B4801F052FF40B94FF4807168
:1052F000674801F066FF0021644880F8D81100E09B
:1053000000BF00BF10BD10B5604890F8D90110B1C2
:10531000012852D13DE05D4890F8E91190F8F9017B
:10532000814235D0594890F8E901012822D15748E7
:10533000D0F8B40118B100215448C0F8B4114FF4AA
:105340000071544801F023FF10BB28214F48C0F8DA
:105350002412C0F8B411012180F8D911052180F878
:10536000091190F8E91180F8F9114FF47A61C0F849
:1053700064120DE0454890F8E91180F8F9114FF4F6
:105380000071434801F01FFF00214048C0F864123B
:1053900014E03E48D0F8240270B94FF400713D4843
:1053A00001F0F5FE40B94FF40071394801F009FFF2
:1053B0000021364880F8D91100E000BF00BF10BDC1
:1053C00010B5324890F8DA0110B1012852D13DE011
:1053D0002E4890F8EA1190F8FA01814235D02B4816
:1053E00090F8EA01012822D12848D0F8B80118B174
:1053F00000212648C0F8B8114FF48061254801F01B
:10540000C6FE10BB28212148C0F82812C0F8B811E8
:10541000012180F8DA11052180F80A1190F8EA11CB
:1054200080F8FA114FF47A61C0F868120DE017485D
:1054300090F8EA1180F8FA114FF48061144801F0F5
:10544000C2FE00211148C0F8681214E00F48D0F8DD
:10545000280270B94FF480610E4801F098FE40B9FF
:105460004FF480610A4801F0ACFE0021074880F843
:10547000DA1100E000BF00BF10BD10B5034890F87E
:10548000DB0148B1012859D144E00000201100207F
:105490000020014000140140FE4890F8EB1190F804
:1054A000FB01814235D0FB4890F8EB01012822D165
:1054B000F848D0F8BC0118B10021F648C0F8BC117A
:1054C0004FF40061F44801F062FE10BB2821F1485E
:1054D000C0F82C12C0F8BC11012180F8DB110521A5
:1054E00080F80B1190F8EB1180F8FB114FF47A6102
:1054F000C0F86C120DE0E74890F8EB1180F8FB1152
:105500004FF40061E54801F05EFE0021E148C0F87B
:105510006C1214E0DF48D0F82C0270B94FF400612F
:10552000DD4801F034FE40B94FF40061DB4801F082
:1055300048FE0021D74880F8DB1100E000BF00BF23
:1055400010BD10B5D34890F8DC0110B1012852D13C
:105550003DE0D04890F8EC1190F8FC01814235D044
:10556000CC4890F8EC01012822D1CA48D0F8C001FB
:1055700018B10021C748C0F8C0114FF48051C64887
:1055800001F005FE10BB2821C248C0F83012C0F857
:10559000C011012180F8DC11052180F80C1190F870
:1055A000EC1180F8FC114FF47A61C0F870120DE034
:1055B000B84890F8EC1180F8FC114FF48051B748CE
:1055C00001F001FE0021B348C0F8701214E0B148A8
:1055D000D0F8300270B94FF48051AF4801F0D7FDD8
:1055E00040B94FF48051AD4801F0EBFD0021A948CE
:1055F00080F8DC1100E000BF00BF10BD10B5A54869
:1056000090F8DD0110B1012852D13DE0A14890F899
:10561000ED1190F8FD01814235D09E4890F8ED01E2
:10562000012822D19B48D0F8C40118B10021994823
:10563000C0F8C4114FF40051974801F0A8FD10BB09
:1056400028219448C0F83412C0F8C411012180F810
:10565000DD11052180F80D1190F8ED1180F8FD1194
:105660004FF47A61C0F874120DE08A4890F8ED1199
:1056700080F8FD114FF40051884801F0A4FD00218D
:105680008448C0F8741214E08248D0F8340270B92B
:105690004FF40051804801F07AFD40B94FF40051B9
:1056A0007E4801F08EFD00217A4880F8DD1100E08F
:1056B00000BF00BF10BD10B5764890F8DE0110B1F4
:1056C000012852D13DE0734890F8EE1190F8FE01A8
:1056D000814235D06F4890F8EE01012822D16D4803
:1056E000D0F8C80118B100216A48C0F8C8114FF4B9
:1056F0008041694801F04BFD10BB28216548C0F886
:105700003812C0F8C811012180F8DE11052180F897
:105710000E1190F8EE1180F8FE114FF47A61C0F886
:1057200078120DE05B4890F8EE1180F8FE114FF40E
:1057300080415A4801F047FD00215648C0F87812D0
:1057400014E05448D0F8380270B94FF48041524800
:1057500001F01DFD40B94FF48041504801F031FD8A
:1057600000214C4880F8DE1100E000BF00BF10BDF2
:1057700010B5484890F8DF0110B1012852D13DE042
:10578000444890F8EF1190F8FF01814235D041482C
:1057900090F8EF01012822D13E48D0F8CC0118B191
:1057A00000213C48C0F8CC114FF400413A4801F0C8
:1057B000EEFC10BB28213748C0F83C12C0F8CC11D1
:1057C000012180F8DF11052180F80F1190F8EF1109
:1057D00080F8FF114FF47A61C0F87C120DE02D487B
:1057E00090F8EF1180F8FF114FF400412B4801F0C1
:1057F000EAFC00212748C0F87C1214E02548D0F8C4
:105800003C0270B94FF40041234801F0C0FC40B99C
:105810004FF40041214801F0D4FC00211D4880F8DC
:10582000DF1100E000BF00BF10BD10B5FBF7C4FFE3
:10583000FCF78AF9FCF72DF9FCF7ADF9FBF745FE0B
:10584000FCF7AAF9FCF71EFBFCF79EFCFCF71BFE1D
:10585000FCF799FFFDF709F9FDF787FAFDF707FC5B
:10586000FDF777FDFEF7A4F8FEF739FAFEF7CDFB5A
:10587000FEF752FDFEF7E6FEFFF77AF8FFF710FAA3
:10588000FFF76AFAFFF7C1FAFFF718FBFFF76FFBA4
:1058900006E000002011002000140140002001401B
:1058A000FFF7BEFBFFF720FCFFF777FCFFF7CEFC0E
:1058B000FFF729FDFFF784FDFFF7DFFDFFF741FE4E
:1058C000FFF79CFEFFF7F7FEFFF752FF10BD10B584
:1058D000BD48007830B1012818D0022832D0032802
:1058E00064D15FE03821B94802F055FC3022B74955
:1058F0006039B64802F01DFCB4487C3890F880123C
:10590000A0F8AC100120B049087053E0AF497C39D1
:10591000C98AAF4A52F821003822AC4900F07AF91E
:1059200060B9AC480078401CAA4908700220A6491A
:1059300008706420A5497C39488302E00320A2490D
:10594000087037E0A1487C38408B30BB01209E496D
:105950000870A04801780078401C9E4A1070072902
:105960001FDB9A487C38C08A401C80B297497C393A
:10597000C882062812DA00240DE095490122086841
:105980009249663900F046F900B906E0142000F0AB
:105990003CFB601CC4B2032CEFDB02E003208A490D
:1059A000087007E000208B49087003E00320864957
:1059B000087000BF00BF10BD70B58549086800F0D1
:1059C0000FF982497C39C8820846C08A4FF6FF71B8
:1059D000884209D07D487C38C08A062804DA7B4892
:1059E0007C38C08A002845D1012078497C39C8829A
:1059F0003821764802F0CFFB00240DE074490122E3
:105A000008687249663900F005F900B906E014200B
:105A100000F0FBFA601CC4B2082CEFDB00BF0024CE
:105A200012E0002104EB440268486038815404EB22
:105A3000440210444170012104EB44026348603881
:105A400010448170601CC4B2102CEADB30225F4924
:105A500060395E4802F06DFB00215C487C38A0F89C
:105A6000AC100146C98A5A4A52F8210038225749D7
:105A700000F0D0F855497C39C98A554A52F82100BE
:105A80003822524900F0AFF800242BE04F4830F89C
:105A900014004FF6FF71884222D1002512E0002148
:105AA00005EB450249486038815405EB4502104436
:105AB0004170012105EB4502444860381044817073
:105AC000681CC5B2102DEADB002140487C38A0F8E4
:105AD000AC10302200F11C017C3002F02AFB03E004
