:020000040800F2
:10000000281100204501000829560008730900083E
:10001000A52700084F0200084F6A000800000000F2
:10002000000000000000000000000000415B00082C
:100030007502000800000000BD5900083D6300087B
:100040005F0100085F0100085F0100085F01000810
:100050005F0100085F0100085F0100085F01000800
:100060005F0100085F0100085F0100085F010008F0
:100070005F0100085F0100085F0100085F010008E0
:100080005F0100085F0100085F0100085F010008D0
:100090005F0100085F0100085F0100085F010008C0
:1000A0005F0100085F0100085F0100085F010008B0
:1000B0004564000869640008FD6400085F010008E9
:1000C0005F0100085F0100085F0100085F01000890
:1000D0005F010008A9660008196700088967000821
:1000E000790200085F0100085F0100085F01000855
:1000F0005F0100085F0100085F0100085F01000860
:100100005F0100085F0100085F0100085F0100084F
:100110005F0100085F0100085F0100085F0100083F
:100120005F0100085F0100085F0100085F0100082F
:10013000DFF80CD000F04EF800480047816D000851
:10014000281100200648804706480047FEE7FEE7E2
:10015000FEE7FEE7FEE7FEE7FEE7FEE7FEE7FEE777
:10016000E56300083101000840EA01039B0703D062
:1001700009E008C9121F08C0042AFAD203E011F8E6
:10018000013B00F8013B521EF9D27047D2B201E0A8
:1001900000F8012B491EFBD270470022F6E710B58C
:1001A00013460A4604461946FFF7F0FF204610BDE5
:1001B00030B505462A460B4612F8010B13F8014BE1
:1001C00008B1A042F8D01CB1002802D06D1CF1E7A4
:1001D000284630BD064C074D06E0E06840F00103BC
:1001E00094E8070098471034AC42F6D3FFF7A4FF19
:1001F0007C6F00089C6F000870B58C1810F8015BCC
:1002000015F0070301D110F8013B2A1106D110F8AF
:10021000012B03E010F8016B01F8016B5B1EF9D1B3
:100220002B0705D40023521E0DD401F8013BFAE739
:1002300010F8013BCB1A921C03E013F8015B01F8A4
:10024000015B521EF9D5A142D8D3002070BD00BF7A
:10025000FEE710B502460B460021002400BF04E073
:10026000505C2044C4B2481CC1B29942F8DBE04360
:10027000C0B210BD7047000070B5002400250026F4
:1002800034E01E480068002830D005F099FB044691
:10029000FA2C00D12BE0C82C03DBFA2C01DA012563
:1002A00017E0552C0ADBC82C08DA01201449087025
:1002B00014480078401C1349087018E0322C03DB06
:1002C000552C01DA012604E00A2C02DB322C00DA7C
:1002D00000265DB10C48006840000B4908600846E4
:1002E000006830440860002006490870C9E700BF74
:1002F0004FF4805000F00AF870BD00003001214238
:100300003901002038010020340100200149086033
:10031000704700001404014030B5044604254FF432
:10032000302000F083F80546042D17D10C480069F1
:1003300040F002000A49086108464461006940F043
:10034000400008614FF4302000F070F80546044882
:10035000006941F6FD71084001490861284630BD39
:100360000020024004200B49C96801F0010109B1D5
:1003700001200EE00749C96801F0040109B102201B
:1003800007E00449C96801F0100109B1032000E049
:1003900004207047002002400348006940F08000BC
:1003A00001490861704700000020024070B5044612
:1003B0000D460426F00200F039F80646042E11D14D
:1003C0000948006940F00100074908612580F002F2
:1003D00000F02CF806460448006941F6FE7108401A
:1003E00001490861304670BD00200240014608887E
:1003F000704730B503460C461546002207E003EB74
:100400004200FFF7F3FF24F81200501C82B2AA4208
:10041000F5DB30BD02480349486003484860704737
:100420002301674500200240AB89EFCD00B50246AD
:100430000423FFF797FF034603E0FFF793FF03460C
:10044000521E012B01D1002AF7D102B9052318460B
:1004500000BD00002DE9F05F054689461746B5F15D
:10046000006F04D305EB47001849884203D34FF0CF
:10047000FF30BDE8F09FFFF7CDFFA5F1006A4FEA1E
:10048000DA284FF0006000EBC82B5846FFF744FF16
:100490000646042E00D010E000240BE039F81410BA
:1004A00005EB4400FFF782FF0646042E00D004E06F
:1004B000601C84B2BC42F1DB00BFFFF76DFF042E6D
:1004C00002D04FF0FF30D4E70020D2E70000080848
:1004D00038B5BC48807B012876D1BA48007B062815
:1004E00073D2DFE800F0030F67EF72EEB6480068E2
:1004F00038B10A20B3498860012008730020B3494D
:1005000008705CE1AF488068002852D1AE480068AE
:1005100000284ED005F02BF90446002C3ED10120D6
:1005200005F002F90446002C38D16B460A2200215E
:10053000012005F0B5F90446C4B9BDF80000A14991
:1005400008820846408800F5FA60886000204873F9
:1005500008739F49087001209E4908709948807C63
:1005600005281BD102209749887417E09748007826
:10057000022813DB012096490870964908709148BB
:10058000807C052802D102208E49887400208D4984
:1005900008730846408800F5967088604CB1894819
:1005A00040880A308749886088480078401C87491D
:1005B000087004E18348407B40B101280DD0022837
:1005C0002DD003287BD191E0FAE0F6E07D488068E9
:1005D00010B901207B49487393E07B480068E8B17B
:1005E00078488068D0B905F0C2F80446B4B9012053
:1005F00005F09AF804468CB940F6B8307149886025
:1006000002204873724908700120724908706D48D1
:10061000807C052802D102206A49887471E06A480A
:100620000068002861D06748806800285DD105F027
:100630009EF80446002C58D1022005F075F80446B7
:10064000002C52D105F0F2F80446CCBB05F00BF9B2
:1006500004460CBB5B48018A022005F07FF9044682
:100660009CB903205749487340F6B8308860002091
:10067000574908700120574908705248807C052866
:1006800033D102204F4988742FE001204D4948732F
:1006900040F6B830886028E001204D4908704D4987
:1006A00008704848807C052802D10220454988749A
:1006B00001204449487340F6B830886015E01FE0D7
:1006C00001E07BE01FE001204149087041490870CA
:1006D0003C48807C052802D102203A4988740120D8
:1006E0003849487340F6B83088600AE03548806879
:1006F00028B905203349087300208873487300E047
:1007000000BF00BF5BE02F48407B20B101280CD028
:1007100003284FD144E02B48806828B900202B499A
:10072000087001202749487345E02648806800B1D9
:1007300041E02449088A012104F0C0FF044694B92D
:100740000020234908700120224908701D48807C40
:10075000052802D102201B498874032019494873D7
:10076000642088601BE019480078401C1749087015
:100770004FF4FA70134988601448007803280EDBA0
:10078000012013490870134908700E48807C052821
:1007900002D102200B49887403200A4948730AE0F9
:1007A0000848806828B90520064908730020887326
:1007B000487300E000BF00BF01E000BF00BF00BF02
:1007C00038BD00004401002010012142FE0000203D
:1007D00097000020980000200EB50121084605F082
:1007E00005F900F01DF84FF47A70ADF804004720C9
:1007F000ADF800000020ADF8020069464FF08040DF
:1008000005F0F2FE0121880705F0C2FE0122114623
:10081000900705F0DDFE0121880705F0BCFE0EBD46
:1008200008B51C208DF8000000208DF80100022082
:100830008DF8020001208DF80300684604F0FCFEEC
:1008400008BD2DE9F04102460025002600200023C6
:100850000024002791F803C00CF00F0591F803C0A5
:100860000CF0100CBCF1000F03D091F802C04CEA60
:10087000050591F800C0BCF1000F31D014680020CC
:100880002BE04FF0010C0CFA00F3B1F800C00CEAB9
:1008900003069E4220D183004FF00F0C0CFA03F7A1
:1008A000BC4305FA03FC4CEA040491F803C0BCF114
:1008B000280F06D14FF0010C0CFA00FCC2F814C04E
:1008C0000AE091F803C0BCF1480F05D14FF0010CCC
:1008D0000CFA00FCC2F810C0401C0828D1D31460E8
:1008E000B1F800C0BCF1FF0F34DD546800202EE0E9
:1008F00000F1080C4FF0010808FA0CF3B1F800C041
:100900000CEA03069E4221D183004FF00F0C0CFA33
:1009100003F7BC4305FA03FC4CEA040491F803C056
:10092000BCF1280F05D100F1080C08FA0CF8C2F848
:10093000148091F803C0BCF1480F07D100F1080CF6
:100940004FF0010808FA0CF8C2F81080401C082883
:10095000CED35460BDE8F0810246002093680B407E
:100960000BB1012000E00020704741617047016138
:10097000704700BFFEE770474AF6AA2001490860A9
:1009800070470000003000407CB50546EF208DF830
:10099000000001208DF801001A480068000E8DF853
:1009A000020018480068000C8DF803001548008804
:1009B000000A8DF80400134800788DF80500072020
:1009C0008DF8060000208DF807000F49088012E01E
:1009D000012006F089F90C48008800F4004050B16D
:1009E00000200949088069460848FFF7E1FB0446F2
:1009F0000CB120467CBD681E80B2051EE8D100BF48
:100A0000F8E70000380000203C010020E806002044
:100A100010B50F4890F880020D4991F88112884274
:100A200014D00B4890F8800228B94FF400510948BF
:100A3000FFF79BFF04E04FF400510648FFF797FFD4
:100A4000034890F88002024981F8810210BD00003D
:100A500044010020000C014008B50121080204F007
:100A6000E5FF4FF6FF70ADF8000003208DF802009F
:100A700014208DF8030069462548FFF7E2FE0121A6
:100A80002348FFF774FF02212148FFF770FF04217C
:100A90001F48FFF76CFF08211D48FFF768FF102172
:100AA0001B48FFF764FF20211948FFF760FF402132
:100AB0001748FFF75CFF80211548FFF758FF4FF4F8
:100AC00080711348FFF753FF4FF400711048FFF790
:100AD0004EFF4FF480610E48FFF749FF4FF400616D
:100AE0000B48FFF744FF4FF480510948FFF73FFFE1
:100AF0004FF400510648FFF73AFF4FF48041044895
:100B0000FFF735FF4FF400410148FFF730FF08BD04
:100B10000020014010B5654890F8D00130B101289F
:100B20004CD002286BD003287ED1A7E05F4890F814
:100B3000E0015E4991F8F01188423ED05B4890F8A0
:100B4000E00110BB5948D0F8900118B10020574976
:100B5000C1F8900101215648FFF7FEFE68BB042052
:100B60005249C1F80002C1F89001012081F8D0017A
:100B7000052081F80001084690F8E00181F8F001B5
:100B80004FF47A60C1F8400217E00020494908702C
:100B900049490870454890F8E001444981F8F0015E
:100BA00001214648FFF7E3FE4048408832303F4984
:100BB000C1F80002022081F8D00175E03B48D0F86E
:100BC0000002D8B901213A48FFF7C6FEB0B90121A9
:100BD0003A48FFF7CAFE0020344981F8D0010846A0
:100BE000807C052801D102208874002034490870D7
:100BF00002203449087000203349087054E02B4823
:100C0000D0F8000200B14FE02A480078042825DA25
:100C100028480078401C274908702748007878B990
:100C200001202549087000E03DE001212348FFF73D
:100C30009CFE1E48408832301C49C1F800021CE06E
:100C400000201D49087001211C48FFF790FE17483D
:100C5000408832301549C1F800020EE003201349E4
:100C600081F8D00101211548FFF77FFE0F48408829
:100C700000F596600D49C1F8000215E00B48D0F868
:100C8000000200B110E001210C48FFF770FE074898
:100C9000408832300549C1F80002002081F8D001B7
:100CA00081F8000100E000BF00BF10BD440100203A
:100CB000001401400F01002010010020002001401D
:100CC00097000020980000209600002010B565488D
:100CD00090F8D10130B101284AD0022869D0032808
:100CE0007ED1A5E05F4890F8E11190F8F1018142D2
:100CF0003DD05C4890F8E10108BB5A48D0F8940117
:100D000018B100215748C0F8941102215648FFF746
:100D100023FE60BB04215348C0F80412C0F89411AC
:100D2000012180F8D111052180F8011190F8E1111D
:100D300080F8F1114FF47A61C0F8441217E0494885
:100D400090F8E11180F8F11102214848FFF70DFEFB
:100D500000204749087047490870424840883230AF
:100D60004049C1F8040202213E4880F8D11176E0E2
:100D70003C48D0F80402D8B902213B48FFF7ECFD0B
:100D8000B0B902213948FFF7F2FD0021354880F85B
:100D9000D111807C052802D10220324988740020BC
:100DA000354908700220354908700120344908701F
:100DB00055E02C48D0F8040200B150E02C480078EF
:100DC000042825DA2A480078401C29490870294857
:100DD000007878B90120274908700221234800E0F3
:100DE0003CE0FFF7C4FD1F48408832301D49C1F880
:100DF00004021CE000201F49087002211B48FFF775
:100E0000B4FD1848408832301649C1F804020EE09B
:100E10000321144880F8D11102211448FFF7A7FDDF
:100E20001048408800F596600E49C1F8040216E0AB
:100E30000C48D0F8040200B111E002210B48FFF782
:100E400094FD0848408832300649C1F80402002168
:100E5000044880F8D11180F8011100E000BF00BF04
:100E600010BD00004401002000140140002001409A
:100E7000110100201201002097000020980000209E
:100E80009600002010B5644890F8D20130B10128D6
:100E90004AD0022868D003287DD1A4E05E4890F8AB
:100EA000E21190F8F20181423DD05B4890F8E201F6
:100EB00008BB5948D0F8980118B100215648C0F82D
:100EC000981104215548FFF747FD60BB04215248A3
:100ED000C0F80812C0F89811012180F8D21105213C
:100EE00080F8021190F8E21180F8F2114FF47A6163
:100EF000C0F8481217E0484890F8E21180F8F21163
:100F000004214748FFF731FD002046490870464953
:100F100008704148408832303F49C1F80802022138
:100F20003D4880F8D21175E03B48D0F80802D0B9AE
:100F300004213A48FFF710FDA8B904213848FFF70B
:100F400016FD0021344880F8D211807C052802D19A
:100F50000220314988740020344908700220344945
:100F600008703449087055E02B48D0F8080200B1E9
:100F700050E02C480078042825DA2A480078401CE4
:100F8000284908702848007878B901202649087057
:100F90000421234800E03CE0FFF7E9FC1E484088BC
:100FA00032301D49C1F808021CE000201E490870BB
:100FB00004211B48FFF7D9FC1748408832301649F6
:100FC000C1F808020EE00321134880F8D211042171
:100FD0001348FFF7CCFC1048408800F596600E4996
:100FE000C1F8080216E00C48D0F8080200B111E080
:100FF00004210B48FFF7B9FC074840883230064906
:10100000C1F808020021044880F8D21180F80211CA
:1010100000E000BF00BF10BD4401002000140140EB
:10102000002001401301002014010020970000203F
:10103000980000209600002010B5654890F8D30174
:1010400030B101284AD0022869D003287ED1A5E01A
:101050005F4890F8E31190F8F30181423DD05C487D
:1010600090F8E30108BB5A48D0F89C0118B1002160
:101070005748C0F89C1108215648FFF76DFC60BB2B
:1010800004215348C0F80C12C0F89C11012180F8CB
:10109000D311052180F8031190F8E31180F8F311C2
:1010A0004FF47A61C0F84C1217E0494890F8E31108
:1010B00080F8F31108214848FFF757FC0020474902
:1010C0000870474908704248408832304049C1F8AA
:1010D0000C0202213E4880F8D31176E03C48D0F85B
:1010E0000C02D8B908213B48FFF736FCB0B90821FB
:1010F0003948FFF73CFC0021354880F8D311807C4B
:10110000052802D102203249887400203549087030
:1011100002203549087003203449087055E02C48F6
:10112000D0F80C0200B150E02C480078042825DAF1
:101130002A480078401C294908702948007878B965
:101140000120274908700821234800E03CE0FFF710
:101150000EFC1F48408832301D49C1F80C021CE0CB
:1011600000201F49087008211B48FFF7FEFB1848A4
:10117000408832301649C1F80C020EE003211448B1
:1011800080F8D31108211448FFF7F1FB104840887C
:1011900000F596600E49C1F80C0216E00C48D0F834
:1011A0000C0200B111E008210B48FFF7DEFB0848F4
:1011B000408832300649C1F80C020021044880F80A
:1011C000D31180F8031100E000BF00BF10BD000084
:1011D00044010020001401400020014015010020BE
:1011E00016010020970000209800002096000020A3
:1011F00010B5654890F8D40130B101284AD00228D2
:1012000069D003287ED1A5E05F4890F8E41190F8FA
:10121000F40181423DD05C4890F8E40108BB5A4893
:10122000D0F8A00118B100215748C0F8A011102132
:101230005648FFF791FB60BB04215348C0F81012D9
:10124000C0F8A011012180F8D411052180F8041103
:1012500090F8E41180F8F4114FF47A61C0F850125C
:1012600017E0494890F8E41180F8F411102148483B
:10127000FFF77BFB00204749087047490870424848
:10128000408832304049C1F8100202213E4880F8BF
:10129000D41176E03C48D0F81002D8B910213B4870
:1012A000FFF75AFBB0B910213948FFF760FB002166
:1012B000354880F8D411807C052802D102203249BB
:1012C00088740020354908700220354908700420D0
:1012D0003449087055E02C48D0F8100200B150E0B5
:1012E0002C480078042825DA2A480078401C29492F
:1012F00008702948007878B9012027490870102122
:10130000234800E03CE0FFF732FB1F4840883230C2
:101310001D49C1F810021CE000201F49087010216F
:101320001B48FFF722FB1848408832301649C1F8A5
:1013300010020EE00321144880F8D4111021144843
:10134000FFF715FB1048408800F596600E49C1F87C
:10135000100216E00C48D0F8100200B111E0102184
:101360000B48FFF702FB0848408832300649C1F8B5
:1013700010020021044880F8D41180F8041100E024
:1013800000BF00BF10BD0000440100200014014058
:1013900000200140170100201801002097000020C4
:1013A000980000209600002010B5654890F8D501FF
:1013B00030B101284AD0022869D003287ED1A5E0A7
:1013C0005F4890F8E51190F8F50181423DD05C4806
:1013D00090F8E50108BB5A48D0F8A40118B10021E3
:1013E0005748C0F8A41120215648FFF7B5FA60BB52
:1013F00004215348C0F81412C0F8A411012180F848
:10140000D511052180F8051190F8E51180F8F51146
:101410004FF47A61C0F8541217E0494890F8E5118A
:1014200080F8F51120214848FFF79FFA002047492E
:101430000870474908704248408832304049C1F836
:10144000140202213E4880F8D51176E03C48D0F8DD
:101450001402D8B920213B48FFF77EFAB0B9202109
:101460003948FFF784FA0021354880F8D511807C8F
:10147000052802D1022032498874002035490870BD
:1014800002203549087005203449087055E02C4881
:10149000D0F8140200B150E02C480078042825DA76
:1014A0002A480078401C294908702948007878B9F2
:1014B0000120274908702021234800E03CE0FFF785
:1014C00056FA1F48408832301D49C1F814021CE00A
:1014D00000201F49087020211B48FFF746FA1848D2
:1014E000408832301649C1F814020EE00321144836
:1014F00080F8D51120211448FFF739FA10484088A8
:1015000000F596600E49C1F8140216E00C48D0F8B8
:10151000140200B111E020210B48FFF726FA084819
:10152000408832300649C1F814020021044880F88E
:10153000D51180F8051100E000BF00BF10BD00000C
:101540004401002000140140002001401901002046
:101550001A0100209700002098000020960000202B
:1015600010B5654890F8D60130B101284AD002285C
:1015700069D003287ED1A5E05F4890F8E61190F885
:10158000F60181423DD05C4890F8E60108BB5A481C
:10159000D0F8A80118B100215748C0F8A81140217F
:1015A0005648FFF7D9F960BB04215348C0F8181218
:1015B000C0F8A811012180F8D611052180F8061184
:1015C00090F8E61180F8F6114FF47A61C0F85812DD
:1015D00017E0494890F8E61180F8F6114021484894
:1015E000FFF7C3F90020474908704749087042488F
:1015F000408832304049C1F8180202213E4880F844
:10160000D61176E03C48D0F81802D8B940213B48C2
:10161000FFF7A2F9B0B940213948FFF7A8F9002136
:10162000354880F8D611807C052802D10220324945
:10163000887400203549087002203549087006205A
:101640003449087055E02C48D0F8180200B150E039
:101650002C480078042825DA2A480078401C2949BB
:1016600008702948007878B901202749087040217E
:10167000234800E03CE0FFF77AF91F484088323009
:101680001D49C1F818021CE000201F4908704021C4
:101690001B48FFF76AF91848408832301649C1F8EC
:1016A00018020EE00321144880F8D6114021144896
:1016B000FFF75DF91048408800F596600E49C1F8C3
:1016C000180216E00C48D0F8180200B111E04021D1
:1016D0000B48FFF74AF90848408832300649C1F8FC
:1016E00018020021044880F8D61180F8061100E0A5
:1016F00000BF00BF10BD00004401002000140140E5
:10170000002001401B0100201C0100209700002048
:10171000980000209600002010B5654890F8D70189
:1017200030B101284AD0022869D003287ED1A5E033
:101730005F4890F8E71190F8F70181423DD05C488E
:1017400090F8E70108BB5A48D0F8AC0118B1002165
:101750005748C0F8AC1180215648FFF7FDF860BB30
:1017600004215348C0F81C12C0F8AC11012180F8C4
:10177000D711052180F8071190F8E71180F8F711CB
:101780004FF47A61C0F85C1217E0494890F8E7110D
:1017900080F8F71180214848FFF7E7F80020474913
:1017A0000870474908704248408832304049C1F8C3
:1017B0001C0202213E4880F8D71176E03C48D0F860
:1017C0001C02D8B980213B48FFF7C6F8B0B9802188
:1017D0003948FFF7CCF80021354880F8D711807CD4
:1017E000052802D10220324988740020354908704A
:1017F00002203549087007203449087055E02C480C
:10180000D0F81C0200B150E02C480078042825DAFA
:101810002A480078401C294908702948007878B97E
:101820000120274908708021234800E03CE0FFF7B1
:101830009EF81F48408832301D49C1F81C021CE048
:1018400000201F49087080211B48FFF78EF81848B8
:10185000408832301649C1F81C020EE003211448BA
:1018600080F8D71180211448FFF781F8104840888C
:1018700000F596600E49C1F81C0216E00C48D0F83D
:101880001C0200B111E080210B48FFF76EF80848F8
:10189000408832300649C1F81C020021044880F813
:1018A000D71180F8071100E000BF00BF10BD000095
:1018B0004401002000140140002001401D010020CF
:1018C0001E010020970000209800002096000020B4
:1018D00010B5684890F8D80130B101284CD00228E2
:1018E0006DD0032870D1AAE0624890F8E81190F812
:1018F000F80181423FD05F4890F8E80110BB5D4895
:10190000D0F8B00118B100215A48C0F8B0114FF416
:1019100080715948FFF720F868BB04215548C0F88A
:101920002012C0F8B011012180F8D811052180F8EB
:10193000081190F8E81180F8F8114FF47A61C0F8B6
:10194000601218E04B4890F8E81180F8F8114FF455
:1019500080714A48FFF709F8002049490870494951
:1019600008704448408832304249C1F820020221C0
:10197000404880F8D8117AE03E48D0F82002E8B913
:101980004FF480713C48FEF7E7FFB8B94FF480711F
:101990003A48FEF7ECFF0021364880F8D811807CE9
:1019A000052802D102203349887400203649087086
:1019B00002203649087008203549087057E02D4844
:1019C000D0F8200208B152E050E02D4800780428F9
:1019D00024DA2B480078401C2949087029480078EF
:1019E00068B901202749087001022448FEF7BFFFAB
:1019F0002048408832301F49C1F820021EE00020F4
:101A0000204908704FF480711C48FEF7AEFF19485A
:101A1000408832301749C1F820020FE003211548F1
:101A200080F8D8114FF480711448FEF7A0FF1148D8
:101A3000408800F596600F49C1F8200217E00D4874
:101A4000D0F8200200B112E04FF480710B48FEF78D
:101A50008CFF0848408832300649C1F82002002136
:101A6000044880F8D81180F8081100E000BF00BFDA
:101A700010BD00004401002000140140002001407E
:101A80001F01002020010020970000209800002066
:101A90009600002010B5684890F8D90130B10128AF
:101AA0004CD002286DD0032870D1AAE0624890F88B
:101AB000E91190F8F90181423FD05F4890F8E901BF
:101AC00010BB5D48D0F8B40118B100215A48C0F8E5
:101AD000B4114FF400715948FEF73EFF68BB042172
:101AE0005548C0F82412C0F8B411012180F8D9116A
:101AF000052180F8091190F8E91180F8F9114FF4E7
:101B00007A61C0F8641218E04B4890F8E91180F847
:101B1000F9114FF400714A48FEF727FF00204949A8
:101B20000870494908704448408832304249C1F839
:101B300024020221404880F8D9117AE03E48D0F8CA
:101B40002402E8B94FF400713C48FEF705FFB8B92C
:101B50004FF400713A48FEF70AFF0021364880F83A
:101B6000D911807C052802D10220334988740020D5
:101B70003649087002203649087009203549087036
:101B800057E02D48D0F8240208B152E050E02D482B
:101B90000078042824DA2B480078401C2949087072
:101BA0002948007868B90120274908704102244873
:101BB000FEF7DDFE2048408832301F49C1F824027C
:101BC0001EE00020204908704FF400711C48FEF709
:101BD000CCFE1948408832301749C1F824020FE082
:101BE0000321154880F8D9114FF400711448FEF70D
:101BF000BEFE1148408800F596600F49C1F82402E6
:101C000017E00D48D0F8240200B112E04FF4007143
:101C10000B48FEF7AAFE0848408832300649C1F852
:101C200024020021044880F8D91180F8091100E04D
:101C300000BF00BF10BD000044010020001401409F
:101C400000200140210100202201002097000020F7
:101C5000980000209600002010B5684890F8DA013E
:101C600030B101284CD002286DD0032870D1AAE0F1
:101C7000624890F8EA1190F8FA0181423FD05F483B
:101C800090F8EA0110BB5D48D0F8B80118B1002106
:101C90005A48C0F8B8114FF480615948FEF75CFE0D
:101CA00068BB04215548C0F82812C0F8B8110121BA
:101CB00080F8DA11052180F80A1190F8EA1180F80D
:101CC000FA114FF47A61C0F8681218E04B4890F8A6
:101CD000EA1180F8FA114FF480614A48FEF745FE98
:101CE000002049490870494908704448408832300A
:101CF0004249C1F828020221404880F8DA117AE00E
:101D00003E48D0F82802E8B94FF480613C48FEF71D
:101D100023FEB8B94FF480613A48FEF728FE00214F
:101D2000364880F8DA11807C052802D10220334938
:101D300088740020364908700220364908700A204D
:101D40003549087057E02D48D0F8280208B152E014
:101D500050E02D480078042824DA2B480078401CF5
:101D6000294908702948007868B901202749087076
:101D700081022448FEF7FBFD2048408832301F498D
:101D8000C1F828021EE00020204908704FF480614D
:101D90001C48FEF7EAFD1948408832301749C1F85F
:101DA00028020FE00321154880F8DA114FF4806112
:101DB0001448FEF7DCFD1148408800F596600F4995
:101DC000C1F8280217E00D48D0F8280200B112E04F
:101DD0004FF480610B48FEF7C8FD08484088323058
:101DE0000649C1F828020021044880F8DA1180F879
:101DF0000A1100E000BF00BF10BD00004401002038
:101E00000014014000200140230100202401002093
:101E100097000020980000209600002010B5684828
:101E200090F8DB0130B101284CD002286DD0032896
:101E300070D1AAE0624890F8EB1190F8FB01814262
:101E40003FD05F4890F8EB0110BB5D48D0F8BC0173
:101E500018B100215A48C0F8BC114FF4006159482C
:101E6000FEF77AFD68BB04215548C0F82C12C0F873
:101E7000BC11012180F8DB11052180F80B1190F8CD
:101E8000EB1180F8FB114FF47A61C0F86C1218E086
:101E90004B4890F8EB1180F8FB114FF400614A4871
:101EA000FEF763FD0020494908704949087044481D
:101EB000408832304249C1F82C020221404880F863
:101EC000DB117AE03E48D0F82C02E8B94FF400610B
:101ED0003C48FEF741FDB8B94FF400613A48FEF7BF
:101EE00046FD0021364880F8DB11807C052802D1B0
:101EF0000220334988740020364908700220364990
:101F000008700B203549087057E02D48D0F82C0296
:101F100008B152E050E02D480078042824DA2B481C
:101F20000078401C294908702948007868B90120C8
:101F300027490870C1022448FEF719FD204840884F
:101F400032301F49C1F82C021EE0002020490870E1
:101F50004FF400611C48FEF708FD194840883230F4
:101F60001749C1F82C020FE00321154880F8DB1156
:101F70004FF400611448FEF7FAFC1148408800F560
:101F800096600F49C1F82C0217E00D48D0F82C02DA
:101F900000B112E04FF400610B48FEF7E6FC084880
:101FA000408832300649C1F82C020021044880F8EC
:101FB000DB1180F80B1100E000BF00BF10BD000076
:101FC00044010020001401400020014025010020B0
:101FD0002601002097000020980000209600002095
:101FE00010B5684890F8DC0130B101284CD00228C7
:101FF0006DD0032870D1AAE0624890F8EC1190F8F7
:10200000FC0181423FD05F4890F8EC0110BB5D4875
:10201000D0F8C00118B100215A48C0F8C0114FF4DF
:1020200080515948FEF798FC68BB04215548C0F818
:102030003012C0F8C011012180F8DC11052180F8B0
:102040000C1190F8EC1180F8FC114FF47A61C0F893
:10205000701218E04B4890F8EC1180F8FC114FF426
:1020600080514A48FEF781FC0020494908704949DF
:1020700008704448408832304249C1F83002022199
:10208000404880F8DC117AE03E48D0F83002E8B9E8
:102090004FF480513C48FEF75FFCB8B94FF48051D3
:1020A0003A48FEF764FC0021364880F8DC11807C59
:1020B000052802D10220334988740020364908706F
:1020C0000220364908700C203549087057E02D4829
:1020D000D0F8300208B152E050E02D4800780428D2
:1020E00024DA2B480078401C2949087029480078D8
:1020F00068B901202749087001032448FEF737FC1E
:102100002048408832301F49C1F830021EE00020CC
:10211000204908704FF480511C48FEF726FC1948EE
:10212000408832301749C1F830020FE003211548CA
:1021300080F8DC114FF480511448FEF718FC114868
:10214000408800F596600F49C1F8300217E00D484D
:10215000D0F8300200B112E04FF480510B48FEF786
:1021600004FC0848408832300649C1F8300200219A
:10217000044880F8DC1180F80C1100E000BF00BFBB
:1021800010BD000044010020001401400020014067
:10219000270100202801002097000020980000203F
:1021A0009600002010B5684890F8DD0130B1012894
:1021B0004CD002286DD0032870D1AAE0624890F874
:1021C000ED1190F8FD0181423FD05F4890F8ED019C
:1021D00010BB5D48D0F8C40118B100215A48C0F8BE
:1021E000C4114FF400515948FEF7B6FB68BB0421F7
:1021F0005548C0F83412C0F8C411012180F8DD112F
:10220000052180F80D1190F8ED1180F8FD114FF4C3
:102210007A61C0F8741218E04B4890F8ED1180F81C
:10222000FD114FF400514A48FEF79FFB0020494939
:102230000870494908704448408832304249C1F822
:1022400034020221404880F8DD117AE03E48D0F89F
:102250003402E8B94FF400513C48FEF77DFBB8B9B1
:102260004FF400513A48FEF782FB0021364880F8CF
:10227000DD11807C052802D10220334988740020BA
:10228000364908700220364908700D20354908701B
:1022900057E02D48D0F8340208B152E050E02D4804
:1022A0000078042824DA2B480078401C294908705B
:1022B0002948007868B9012027490870410324485B
:1022C000FEF755FB2048408832301F49C1F83402E0
:1022D0001EE00020204908704FF400511C48FEF712
:1022E00044FB1948408832301749C1F834020FE0E6
:1022F0000321154880F8DD114FF400511448FEF712
:1023000036FB1148408800F596600F49C1F8340249
:1023100017E00D48D0F8340200B112E04FF400513C
:102320000B48FEF722FB0848408832300649C1F8C6
:1023300034020021044880F8DD1180F80D1100E01E
:1023400000BF00BF10BD0000440100200014014088
:1023500000200140290100202A01002097000020D0
:10236000980000209600002010B5684890F8DE0123
:1023700030B101284CD002286DD0032870D1AAE0DA
:10238000624890F8EE1190F8FE0181423FD05F481C
:1023900090F8EE0110BB5D48D0F8C80118B10021DB
:1023A0005A48C0F8C8114FF480415948FEF7D4FA92
:1023B00068BB04215548C0F83812C0F8C811012183
:1023C00080F8DE11052180F80E1190F8EE1180F8EA
:1023D000FE114FF47A61C0F8781218E04B4890F87B
:1023E000EE1180F8FE114FF480414A48FEF7BDFA25
:1023F00000204949087049490870444840883230F3
:102400004249C1F838020221404880F8DE117AE0E2
:102410003E48D0F83802E8B94FF480413C48FEF716
:102420009BFAB8B94FF480413A48FEF7A0FA002170
:10243000364880F8DE11807C052802D1022033491D
:1024400088740020364908700220364908700E2032
:102450003549087057E02D48D0F8380208B152E0ED
:1024600050E02D480078042824DA2B480078401CDE
:10247000294908702948007868B90120274908705F
:1024800081032448FEF773FA2048408832301F4900
:10249000C1F838021EE00020204908704FF4804146
:1024A0001C48FEF762FA1948408832301749C1F8D3
:1024B00038020FE00321154880F8DE114FF4804107
:1024C0001448FEF754FA1148408800F596600F4909
:1024D000C1F8380217E00D48D0F8380200B112E018
:1024E0004FF480410B48FEF740FA084840883230EC
:1024F0000649C1F838020021044880F8DE1180F84E
:102500000E1100E000BF00BF10BD0000440100201C
:1025100000140140002001402B0100202C0100206C
:1025200097000020980000209600002010B5684811
:1025300090F8DF0130B101284CD002286DD003287B
:1025400070D1AAE0624890F8EF1190F8FF01814243
:102550003FD05F4890F8EF0110BB5D48D0F8CC0148
:1025600018B100215A48C0F8CC114FF40041594825
:10257000FEF7F2F968BB04215548C0F83C12C0F8D8
:10258000CC11012180F8DF11052180F80F1190F89E
:10259000EF1180F8FF114FF47A61C0F87C1218E057
:1025A0004B4890F8EF1180F8FF114FF400414A4872
:1025B000FEF7DBF900204949087049490870444892
:1025C000408832304249C1F83C020221404880F83C
:1025D000DF117AE03E48D0F83C02E8B94FF4004100
:1025E0003C48FEF7B9F9B8B94FF400413A48FEF754
:1025F000BEF90021364880F8DF11807C052802D121
:102600000220334988740020364908700220364978
:1026100008700F203549087057E02D48D0F83C026B
:1026200008B152E050E02D480078042824DA2B4805
:102630000078401C294908702948007868B90120B1
:1026400027490870C1032448FEF791F920484088C3
:1026500032301F49C1F83C021EE0002020490870BA
:102660004FF400411C48FEF780F919484088323089
:102670001749C1F83C020FE00321154880F8DF112B
:102680004FF400411448FEF772F91148408800F5F4
:1026900096600F49C1F83C0217E00D48D0F83C02A3
:1026A00000B112E04FF400410B48FEF75EF9084814
:1026B000408832300649C1F83C020021044880F8C5
:1026C000DF1180F80F1100E000BF00BF10BD000057
:1026D0004401002000140140002001402D01002091
:1026E0002E01002097000020980000209600002076
:1026F00000BF0549098801F040010029F9D00249CD
:10270000091D0880704700000044004010B503F028
:10271000EBFCFEF77DF903F051FA03F0B7FFFEF78B
:102720002AF9FDF7D5FE00F03FF800F0BFF900F000
:102730003BFB00F0B7FC00F033FE00F0AFFF01F010
:102740002BF901F0A7FA01F023FC01F0B5FD01F02F
:1027500047FF02F0D9F802F06BFA02F0FDFB02F03D
:102760008FFDFEF7D7F9FEF7B1FAFEF78BFBFEF708
:1027700063FCFEF73DFDFEF717FEFEF7F1FEFEF7E8
:10278000CBFFFFF7A5F8FFF785F9FFF765FAFFF72D
:1027900045FBFFF725FCFFF705FDFFF7E5FDFFF71C
:1027A000C5FE10BD00BFFEE710B5BA4890F80001A5
:1027B000082873D2DFE800F0041B1C5ACFFEFDFC92
:1027C000B448D0F8C00088B9B24890F8400100EB96
:1027D0004000B14901EB80004068AE49C1F85001AA
:1027E000022081F80001002081F8100150E14FE142
:1027F000A84890F8200160B90121A848FEF7B7F871
:102800000121A748FEF7B1F80320A24981F8000191
:1028100025E0A04890F8200101280CD10121A04812
:10282000FEF7A5F801219D48FEF79FF8032099497E
:1028300081F8000113E0974890F8200102280ED19A
:1028400000209849087001219448FEF790F8012172
:102850009348FEF78AF804208E4981F800018D48DC
:1028600090F820018B4981F8300111E1894890F8F6
:102870002001884991F83011884210D00121874801
:10288000FEF773F801218648FEF76FF800208149B2
:1028900081F80001C820C1F8C000F9E0F7E07D48E8
:1028A00090F8100110B1012852D11BE07948D0F8FE
:1028B0005001B0B9774890F8400100EB40007649EC
:1028C00001EB800080687349C1F89001012081F814
:1028D000100101217148FEF748F801217048FEF708
:1028E00044F836E06B48D0F8900180BB694890F816
:1028F000400100EB4000684901EB800040686549F9
:10290000C1F85001002081F81001084690F820011C
:1029100060B901216148FEF72AF801216048FEF7FD
:1029200024F803205B4981F8000110E0594890F831
:10293000200101280BD101215948FEF718F8012187
:102940005648FEF712F80320524981F8000100E0D2
:1029500000BF00BF9CE04F4890F820014D4991F81E
:10296000301188420CD001214C48FDF7FEFF0121B7
:102970004B48FDF7FAFF0020464981F8000187E047
:10298000444890F8100110B101286AD14AE041484A
:10299000D0F85001D8B93F4890F8400100EB400012
:1029A0003D4901EB800080683A49C1F8900102E09E
:1029B0006CE06AE058E0012081F8100101213748FD
:1029C000FDF7D3FF01213648FDF7CFFF29E031485D
:1029D000D0F8C00028BB01213348FDF7BDFF00BB84
:1029E0002C48408800F5FA702A49C1F8C0002D48EB
:1029F000007858B901202B49087001212848FDF7BB
:102A0000B6FF01212548FDF7B0FF0AE00020254967
:102A1000087001212148FDF7AAFF01212048FDF798
:102A2000A4FF1FE01B48D0F89001C8B900201D4941
:102A30000870184890F8400100EB4000164901EB7F
:102A4000800040681349C1F85001002081F810014E
:102A500001211248FDF78BFF01211148FDF785FF89
:102A600000E000BF00BF13E00A48D0F8900158B959
:102A700001210B48FDF779FF01210848FDF775FF9B
:102A80000720044981F8000102E001E000E000BFF6
:102A900000BF10BD44010020B40000200018014018
:102AA000001C0140FF0000200014014010B5B84890
:102AB00090F80101082871D2DFE800F0041B1C59CE
:102AC000CCFEFDFCB248D0F8C40088B9B04890F8FC
:102AD000410100EB4000AF4901EB80004168AC4888
:102AE000C0F85411022180F80111002180F8111161
:102AF0004CE14BE1A64890F8210160B90221A648BB
:102B0000FDF735FF0221A548FDF72FFF0321A0485F
:102B100080F8011125E09E4890F8210101280CD190
:102B200002219E48FDF723FF02219B48FDF71DFF70
:102B30000321974880F8011113E0954890F821018E
:102B400002280ED100209649087002219248FDF714
:102B50000EFF02219148FDF708FF04218C4880F800
:102B600001118B4890F8211180F831110EE188484D
:102B700090F8211190F83101814210D0022186484D
:102B8000FDF7F3FE02218548FDF7EFFE00218048A6
:102B900080F80111C821C0F8C410F7E0F5E07C48C6
:102BA00090F8110110B1012851D11BE07848D0F8FC
:102BB0005401B0B9764890F8410100EB40007549E6
:102BC00001EB800081687248C0F89411012180F8FF
:102BD000111102217048FDF7C8FE02216F48FDF770
:102BE000C4FE35E06A48D0F8940178BB684890F894
:102BF000410100EB4000674901EB800041686448F7
:102C0000C0F85411002180F8111190F8210160B929
:102C100002216148FDF7ABFE02216048FDF7A5FEE9
:102C200003215B4880F8011110E0594890F8210118
:102C300001280BD102215948FDF799FE022156487F
:102C4000FDF793FE0321524880F8011100E000BF18
:102C500000BF9BE04E4890F8211190F8310181426D
:102C60000CD002214C48FDF780FE02214B48FDF7B5
:102C70007CFE0021464880F8011187E0444890F826
:102C8000110110B101286AD14AE04148D0F854013D
:102C9000D8B93F4890F8410100EB40003D4901EBB5
:102CA000800081683A48C0F89411012180F8111120
:102CB000022102E068E066E054E03748FDF755FE87
:102CC00002213648FDF751FE29E03148D0F8C40012
:102CD00028BB02213348FDF73FFE00BB2C4840884B
:102CE00000F5FA702A49C1F8C4002D48007858B997
:102CF00001202B49087002212848FDF738FE0221E7
:102D00002548FDF732FE0AE000202549087002211F
:102D10002148FDF72CFE02212048FDF726FE1FE08A
:102D20001B48D0F89401C8B900201D490870184804
:102D300090F8410100EB4000164901EB800041682A
:102D40001348C0F85411002180F8111102211248D3
:102D5000FDF70DFE02211148FDF707FE00E000BF60
:102D600000BF13E00A48D0F8940158B902210B487B
:102D7000FDF7FBFD02210848FDF7F7FD0721044898
:102D800080F8011102E001E000E000BF00BF10BDCB
:102D900044010020B400002000180140001C014044
:102DA000000100200014014010B5B84890F802015D
:102DB000082871D2DFE800F0041B1C59CCFEFDFC92
:102DC000B248D0F8C80088B9B04890F8420100EB8A
:102DD0004000AF4901EB80004168AC48C0F8581191
:102DE000022180F80211002180F812114CE14BE120
:102DF000A64890F8220160B90421A648FDF7B7FD66
:102E00000421A548FDF7B1FD0321A04880F8021177
:102E100025E09E4890F8220101280CD104219E480B
:102E2000FDF7A5FD04219B48FDF79FFD0321974871
:102E300080F8021113E0954890F8220102280ED183
:102E400000209649087004219248FDF790FD042166
:102E50009148FDF78AFD04218C4880F802118B48C7
:102E600090F8221180F832110EE1884890F8221172
:102E700090F83201814210D004218648FDF775FD9B
:102E800004218548FDF771FD0021804880F802117A
:102E9000C821C0F8C810F7E0F5E07C4890F81201AE
:102EA00010B1012851D11BE07848D0F85801B0B9D1
:102EB000764890F8420100EB4000754901EB800034
:102EC00081687248C0F89811012180F8121104211C
:102ED0007048FDF74AFD04216F48FDF746FD35E0D7
:102EE0006A48D0F8980178BB684890F8420100EB36
:102EF0004000674901EB800041686448C0F8581100
:102F0000002180F8121190F8220160B90421614873
:102F1000FDF72DFD04216048FDF727FD03215B48E7
:102F200080F8021110E0594890F8220101280BD1D5
:102F300004215948FDF71BFD04215648FDF715FDF6
:102F40000321524880F8021100E000BF00BF9BE05F
:102F50004E4890F8221190F8320181420CD00421A1
:102F60004C48FDF702FD04214B48FDF7FEFC002113
:102F7000464880F8021187E0444890F8120110B1E9
:102F800001286AD14AE04148D0F85801D8B93F48F1
:102F900090F8420100EB40003D4901EB8000816860
:102FA0003A48C0F89811012180F81211042102E07A
:102FB00068E066E054E03748FDF7D7FC0421364866
:102FC000FDF7D3FC29E03148D0F8C80028BB042124
:102FD0003348FDF7C1FC00BB2C48408800F5FA706F
:102FE0002A49C1F8C8002D48007858B901202B495A
:102FF000087004212848FDF7BAFC04212548FDF794
:10300000B4FC0AE000202549087004212148FDF79E
:10301000AEFC04212048FDF7A8FC1FE01B48D0F8B7
:103020009801C8B900201D490870184890F842015D
:1030300000EB4000164901EB800041681348C0F8DE
:103040005811002180F8121104211248FDF78FFC5D
:1030500004211148FDF789FC00E000BF00BF13E028
:103060000A48D0F8980158B904210B48FDF77DFCB7
:1030700004210848FDF779FC0721044880F8021173
:1030800002E001E000E000BF00BF10BD44010020ED
:10309000B400002000180140001C01400101002084
:1030A0000014014010B5B84890F80301082871D207
:1030B000DFE800F0041B1C59CCFEFDFCB248D0F840
:1030C000CC0088B9B04890F8430100EB4000AF490C
:1030D00001EB80004168AC48C0F85C11022180F827
:1030E0000311002180F813114CE14BE1A64890F840
:1030F000230160B90821A648FDF739FC0821A5483D
:10310000FDF733FC0321A04880F8031125E09E4819
:1031100090F8230101280CD108219E48FDF727FCD7
:1031200008219B48FDF721FC0321974880F80311F3
:1031300013E0954890F8230102280ED1002096490B
:10314000087008219248FDF712FC08219148FDF70C
:103150000CFC04218C4880F803118B4890F8231153
:1031600080F833110EE1884890F8231190F833016C
:10317000814210D008218648FDF7F7FB08218548D9
:10318000FDF7F3FB0021804880F80311C821C0F847
:10319000CC10F7E0F5E07C4890F8130110B101285D
:1031A00051D11BE07848D0F85C01B0B9764890F86E
:1031B000430100EB4000754901EB800081687248D3
:1031C000C0F89C11012180F8131108217048FDF707
:1031D000CCFB08216F48FDF7C8FB35E06A48D0F802
:1031E0009C0178BB684890F8430100EB40006749B8
:1031F00001EB800041686448C0F85C11002180F850
:10320000131190F8230160B908216148FDF7AFFB65
:1032100008216048FDF7A9FB03215B4880F80311F2
:1032200010E0594890F8230101280BD10821594892
:10323000FDF79DFB08215648FDF797FB03215248F7
:1032400080F8031100E000BF00BF9BE04E4890F8FB
:10325000231190F8330181420CD008214C48FDF72E
:1032600084FB08214B48FDF780FB0021464880F88D
:10327000031187E0444890F8130110B101286AD186
:103280004AE04148D0F85C01D8B93F4890F8430182
:1032900000EB40003D4901EB800081683A48C0F8EE
:1032A0009C11012180F81311082102E068E066E01A
:1032B00054E03748FDF759FB08213648FDF755FB28
:1032C00029E03148D0F8CC0028BB08213348FDF76D
:1032D00043FB00BB2C48408800F5FA702A49C1F82E
:1032E000CC002D48007858B901202B4908700821DE
:1032F0002848FDF73CFB08212548FDF736FB0AE08E
:1033000000202549087008212148FDF730FB0821DD
:103310002048FDF72AFB1FE01B48D0F89C01C8B9E4
:1033200000201D490870184890F8430100EB400048
:10333000164901EB800041681348C0F85C11002178
:1033400080F8131108211248FDF711FB08211148DC
:10335000FDF70BFB00E000BF00BF13E00A48D0F808
:103360009C0158B908210B48FDF7FFFA08210848CD
:10337000FDF7FBFA0721044880F8031102E001E0A1
:1033800000E000BF00BF10BD44010020B4000020D9
:1033900000180140001C01400201002000140140FF
:1033A00010B5B84890F80401082871D2DFE800F0A1
:1033B000041B1C59CCFEFDFCB248D0F8D00088B9E3
:1033C000B04890F8440100EB4000AF4901EB8000A9
:1033D0004168AC48C0F86011022180F80411002156
:1033E00080F814114CE14BE1A64890F8240160B933
:1033F0001021A648FDF7BBFA1021A548FDF7B5FA44
:103400000321A04880F8041125E09E4890F824018B
:1034100001280CD110219E48FDF7A9FA10219B48E4
:10342000FDF7A3FA0321974880F8041113E09548AB
:1034300090F8240102280ED100209649087010212E
:103440009248FDF794FA10219148FDF78EFA042175
:103450008C4880F804118B4890F8241180F83411BE
:103460000EE1884890F8241190F83401814210D080
:1034700010218648FDF779FA10218548FDF775FA85
:103480000021804880F80411C821C0F8D010F7E06E
:10349000F5E07C4890F8140110B1012851D11BE0EF
:1034A0007848D0F86001B0B9764890F8440100EB54
:1034B0004000754901EB800081687248C0F8A01196
:1034C000012180F8141110217048FDF74EFA1021E7
:1034D0006F48FDF74AFA35E06A48D0F8A00178BB9A
:1034E000684890F8440100EB4000674901EB800018
:1034F00041686448C0F86011002180F8141190F808
:10350000240160B910216148FDF731FA10216048AB
:10351000FDF72BFA03215B4880F8041110E05948AD
:1035200090F8240101280BD110215948FDF71FFA0A
:1035300010215648FDF719FA0321524880F804116A
:1035400000E000BF00BF9BE04E4890F8241190F8C7
:10355000340181420CD010214C48FDF706FA1021AD
:103560004B48FDF702FA0021464880F8041187E035
:10357000444890F8140110B101286AD14AE041484A
:10358000D0F86001D8B93F4890F8440100EB400002
:103590003D4901EB800081683A48C0F8A011012143
:1035A00080F81411102102E068E066E054E037482A
:1035B000FDF7DBF910213648FDF7D7F929E031484E
:1035C000D0F8D00028BB10213348FDF7C5F900BB67
:1035D0002C48408800F5FA702A49C1F8D0002D48DF
:1035E000007858B901202B49087010212848FDF7B0
:1035F000BEF910212548FDF7B8F90AE00020254959
:10360000087010212148FDF7B2F910212048FDF77C
:10361000ACF91FE01B48D0F8A001C8B900201D4933
:103620000870184890F8440100EB4000164901EB7F
:10363000800041681348C0F86011002180F814111F
:1036400010211248FDF793F910211148FDF78DF96B
:1036500000E000BF00BF13E00A48D0F8A00158B94D
:1036600010210B48FDF781F910210848FDF77DF97D
:103670000721044880F8041102E001E000E000BFE7
:1036800000BF10BD44010020B4000020001801401C
:10369000001C0140030100200014014010B5B8488F
:1036A00090F80501082871D2DFE800F0041B1C59CE
:1036B000CCFEFDFCB248D0F8D40088B9B04890F8F0
:1036C000450100EB4000AF4901EB80004168AC4888
:1036D000C0F86411022180F80511002180F815114D
:1036E0004CE14BE1A64890F8250160B92021A6489D
:1036F000FDF73DF92021A548FDF737F90321A04842
:1037000080F8051125E09E4890F8250101280CD18C
:1037100020219E48FDF72BF920219B48FDF725F934
:103720000321974880F8051113E0954890F825018A
:1037300002280ED100209649087020219248FDF7FA
:1037400016F920219148FDF710F904218C4880F8E2
:1037500005118B4890F8251180F835110EE1884845
:1037600090F8251190F83501814210D0202186482B
:10377000FDF7FBF820218548FDF7F7F80021804888
:1037800080F80511C821C0F8D410F7E0F5E07C48B6
:1037900090F8150110B1012851D11BE07848D0F8FC
:1037A0006401B0B9764890F8450100EB40007549D6
:1037B00001EB800081687248C0F8A411012180F8F3
:1037C000151120217048FDF7D0F820216F48FDF732
:1037D000CCF835E06A48D0F8A40178BB684890F886
:1037E000450100EB4000674901EB800041686448F7
:1037F000C0F86411002180F8151190F8250160B916
:1038000020216148FDF7B3F820216048FDF7ADF8AD
:1038100003215B4880F8051110E0594890F8250114
:1038200001280BD120215948FDF7A1F82021564845
:10383000FDF79BF80321524880F8051100E000BF16
:1038400000BF9BE04E4890F8251190F83501814269
:103850000CD020214C48FDF788F820214B48FDF77B
:1038600084F80021464880F8051187E0444890F824
:10387000150110B101286AD14AE04148D0F864012D
:10388000D8B93F4890F8450100EB40003D4901EBB5
:10389000800081683A48C0F8A411012180F8151110
:1038A000202102E068E066E054E03748FDF75DF86B
:1038B00020213648FDF759F829E03148D0F8D400E6
:1038C00028BB20213348FDF747F800BB2C4840882F
:1038D00000F5FA702A49C1F8D4002D48007858B98B
:1038E00001202B49087020212848FDF740F82021AD
:1038F0002548FDF73AF80AE0002025490870202104
:103900002148FDF734F820212048FDF72EF81FE06C
:103910001B48D0F8A401C8B900201D4908701848F8
:1039200090F8450100EB4000164901EB800041682A
:103930001348C0F86411002180F8151120211248A5
:10394000FDF715F820211148FDF70FF800E000BF42
:1039500000BF13E00A48D0F8A40158B920210B4851
:10396000FDF703F820210848FCF7FFFF0721044872
:1039700080F8051102E001E000E000BF00BF10BDCB
:1039800044010020B400002000180140001C014048
:10399000040100200014014010B5B84890F8060159
:1039A000082871D2DFE800F0041B1C59CCFEFDFC96
:1039B000B248D0F8D80088B9B04890F8460100EB7A
:1039C0004000AF4901EB80004168AC48C0F8681185
:1039D000022180F80611002180F816114CE14BE11C
:1039E000A64890F8260160B94021A648FCF7BFFF21
:1039F0004021A548FCF7B9FF0321A04880F8061133
:103A000025E09E4890F8260101280CD140219E48CF
:103A1000FCF7ADFF40219B48FCF7A7FF0321974827
:103A200080F8061113E0954890F8260102280ED17F
:103A300000209649087040219248FCF798FF4021E9
:103A40009148FCF792FF04218C4880F806118B48BE
:103A500090F8261180F836110EE1884890F826116A
:103A600090F83601814210D040218648FCF77DFF56
:103A700040218548FCF779FF0021804880F8061135
:103A8000C821C0F8D810F7E0F5E07C4890F816019E
:103A900010B1012851D11BE07848D0F86801B0B9C5
:103AA000764890F8460100EB4000754901EB800034
:103AB00081687248C0F8A811012180F816114021D0
:103AC0007048FCF752FF40216F48FCF74EFF35E08D
:103AD0006A48D0F8A80178BB684890F8460100EB26
:103AE0004000674901EB800041686448C0F86811F4
:103AF000002180F8161190F8260160B94021614834
:103B0000FCF735FF40216048FCF72FFF03215B489D
:103B100080F8061110E0594890F8260101280BD1D1
:103B200040215948FCF723FF40215648FCF71DFF70
:103B30000321524880F8061100E000BF00BF9BE05F
:103B40004E4890F8261190F8360181420CD0402161
:103B50004C48FCF70AFF40214B48FCF706FF0021C8
:103B6000464880F8061187E0444890F8160110B1E5
:103B700001286AD14AE04148D0F86801D8B93F48E5
:103B800090F8460100EB40003D4901EB8000816860
:103B90003A48C0F8A811012180F81611402102E02E
:103BA00068E066E054E03748FCF7DFFE4021364825
:103BB000FCF7DBFE29E03148D0F8D80028BB4021D3
:103BC0003348FCF7C9FE00BB2C48408800F5FA706A
:103BD0002A49C1F8D8002D48007858B901202B494E
:103BE000087040212848FCF7C2FE40212548FCF718
:103BF000BCFE0AE000202549087040212148FCF75E
:103C0000B6FE40212048FCF7B0FE1FE01B48D0F86C
:103C1000A801C8B900201D490870184890F846014D
:103C200000EB4000164901EB800041681348C0F8E2
:103C30006811002180F8161140211248FCF797FE08
:103C400040211148FCF791FE00E000BF00BF13E0E7
:103C50000A48D0F8A80158B940210B48FCF785FE66
:103C600040210848FCF781FE0721044880F806112E
:103C700002E001E000E000BF00BF10BD44010020F1
:103C8000B400002000180140001C01400501002084
:103C90000014014010B5B84890F80701082871D207
:103CA000DFE800F0041B1C59CCFEFDFCB248D0F844
:103CB000DC0088B9B04890F8470100EB4000AF49FC
:103CC00001EB80004168AC48C0F86C11022180F81B
:103CD0000711002180F817114CE14BE1A64890F83C
:103CE000270160B98021A648FCF741FE8021A54844
:103CF000FCF73BFE0321A04880F8071125E09E4811
:103D000090F8270101280CD180219E48FCF72FFE56
:103D100080219B48FCF729FE0321974880F8071172
:103D200013E0954890F8270102280ED1002096490B
:103D3000087080219248FCF71AFE80219148FCF718
:103D400014FE04218C4880F807118B4890F8271145
:103D500080F837110EE1884890F8271190F8370164
:103D6000814210D080218648FCF7FFFD80218548E4
:103D7000FCF7FBFD0021804880F80711C821C0F83E
:103D8000DC10F7E0F5E07C4890F8170110B101284D
:103D900051D11BE07848D0F86C01B0B9764890F862
:103DA000470100EB4000754901EB800081687248D3
:103DB000C0F8AC11012180F8171180217048FCF780
:103DC000D4FD80216F48FCF7D0FD35E06A48D0F87B
:103DD000AC0178BB684890F8470100EB40006749A8
:103DE00001EB800041686448C0F86C11002180F844
:103DF000171190F8270160B980216148FCF7B7FDE1
:103E000080216048FCF7B1FD03215B4880F8071171
:103E100010E0594890F8270101280BD1802159481A
:103E2000FCF7A5FD80215648FCF79FFD0321524871
:103E300080F8071100E000BF00BF9BE04E4890F8FB
:103E4000271190F8370181420CD080214C48FCF7B3
:103E50008CFD80214B48FCF788FD0021464880F806
:103E6000071187E0444890F8170110B101286AD182
:103E70004AE04148D0F86C01D8B93F4890F8470172
:103E800000EB40003D4901EB800081683A48C0F8F2
:103E9000AC11012180F81711802102E068E066E092
:103EA00054E03748FCF761FD80213648FCF75DFDA2
:103EB00029E03148D0F8DC0028BB80213348FCF7EA
:103EC0004BFD00BB2C48408800F5FA702A49C1F828
:103ED000DC002D48007858B901202B49087080215A
:103EE0002848FCF744FD80212548FCF73EFD0AE008
:103EF00000202549087080212148FCF738FD8021E9
:103F00002048FCF732FD1FE01B48D0F8AC01C8B9CF
:103F100000201D490870184890F8470100EB400048
:103F2000164901EB800041681348C0F86C1100216C
:103F300080F8171180211248FCF719FD80211148E3
:103F4000FCF713FD00E000BF00BF13E00A48D0F803
:103F5000AC0158B980210B48FCF707FD80210848C7
:103F6000FCF703FD0721044880F8071102E001E097
:103F700000E000BF00BF10BD44010020B4000020DD
:103F800000180140001C01400601002000140140FF
:103F900010B5C34890F80801082878D2DFE800F08F
:103FA000041B1C5ED7EFEEEDBD48D0F8E00088B9E9
:103FB000BB4890F8480100EB4000BA4901EB800093
:103FC0004168B748C0F87011022180F8081100213B
:103FD00080F8181161E160E1B14890F8280170B9EA
:103FE0004FF48071B048FCF7C2FC4FF48071AF48C9
:103FF000FCF7BBFC0321AA4880F8081128E0A84878
:1040000090F8280101280DD10102A848FCF7AFFC67
:104010004FF48071A448FCF7A8FC0321A04880F865
:10402000081115E09E4890F82801022810D10020C0
:104030009F4908704FF480719B48FCF798FC4FF43F
:1040400080719A48FCF791FC0421954880F808118A
:10405000934890F8281180F838111EE1904890F8A4
:10406000281190F83801814212D04FF480718E48A7
:10407000FCF77BFC4FF480718C48FCF776FC002148
:10408000874880F80811C821C0F8E01005E103E175
:10409000834890F8180110B1012855D11CE08048E0
:1040A000D0F87001B8B97E4890F8480100EB4000A4
:1040B0007C4901EB800081687948C0F8B01101218A
:1040C00080F8181109027848FCF74FFC4FF4807112
:1040D0007648FCF74AFC38E07148D0F8B001F8B9EE
:1040E0006F4890F8480100EB40006E4901EB8000FA
:1040F00041686B48C0F87011002180F8181190F8E1
:10410000280170B94FF480716748FCF730FC4FF418
:1041100080716648FCF729FC0321614880F808118A
:1041200011E05F4890F8280101280CD101025F4896
:10413000FCF71DFC4FF480715B48FCF716FC032173
:10414000574880F8081100E000BF00BFA5E05448C0
:1041500090F8281190F83801814211D04FF4807105
:104160005148FCF702FC4FF480715048FCF7FDFB0E
:1041700000214B4880F808118FE08CE08AE076E05F
:10418000474890F8180110B101286DD14BE0444820
:10419000D0F87001C0B9424890F8480100EB4000E7
:1041A000404901EB800081683D48C0F8B011012111
:1041B00080F8181109023C48FCF7D7FB4FF48071D6
:1041C0003A48FCF7D2FB2DE03548D0F8E00048BB78
:1041D0004FF480713748FCF7BFFB18BB304840886C
:1041E00000F5FA702E49C1F8E0003148007860B956
:1041F00001202F49087001022C48FCF7B8FB4FF44E
:1042000080712948FCF7B1FB0CE0002028490870B8
:104210004FF480712448FCF7AAFB4FF480712348C7
:10422000FCF7A3FB21E01E48D0F8B001D8B900206C
:104230001F4908701A4890F8480100EB40001949DE
:1042400001EB800041681648C0F87011002180F829
:1042500018114FF480711448FCF789FB4FF48071FA
:104260001248FCF782FB00E000BF00BF15E00C48DD
:10427000D0F8B00168B94FF480710C48FCF775FBB9
:104280004FF480710848FCF770FB0721044880F860
:10429000081102E001E000E000BF00BF10BD000017
:1042A00044010020B400002000180140001C01401F
:1042B000070100200014014010B5C34890F80A011E
:1042C000082878D2DFE800F0041B1C5ED7EFEEED83
:1042D000BD48D0F8E80088B9BB4890F84A0100EB27
:1042E0004000BA4901EB80004168B748C0F8781136
:1042F000022180F80A11002180F81A1161E160E1C1
:10430000B14890F82A0170B94FF48061B048FCF7C9
:104310002EFB4FF48061AF48FCF727FB0321AA482E
:1043200080F80A1128E0A84890F82A0101280DD148
:104330008102A848FCF71BFB4FF48061A448FCF7FE
:1043400014FB0321A04880F80A1115E09E4890F85C
:104350002A01022810D100209F4908704FF4806183
:104360009B48FCF704FB4FF480619A48FCF7FDFA88
:104370000421954880F80A11934890F82A1180F892
:104380003A111EE1904890F82A1190F83A018142C2
:1043900012D04FF480618E48FCF7E7FA4FF4806149
:1043A0008C48FCF7E2FA0021874880F80A11C821FE
:1043B000C0F8E81005E103E1834890F81A0110B154
:1043C000012855D11CE08048D0F87801B8B97E4862
:1043D00090F84A0100EB40007C4901EB80008168C5
:1043E0007948C0F8B811012180F81A11890278487B
:1043F000FCF7BBFA4FF480617648FCF7B6FA38E078
:104400007148D0F8B801F8B96F4890F84A0100EB4C
:1044100040006E4901EB800041686B48C0F878119C
:10442000002180F81A1190F82A0170B94FF48061C8
:104430006748FCF79CFA4FF480616648FCF795FAF0
:104440000321614880F80A1111E05F4890F82A01C1
:1044500001280CD181025F48FCF789FA4FF4806192
:104460005B48FCF782FA0321574880F80A1100E004
:1044700000BF00BFA5E0544890F82A1190F83A0117
:10448000814211D04FF480615148FCF76EFA4FF42D
:1044900080615048FCF769FA00214B4880F80A1106
:1044A0008FE08CE08AE076E0474890F81A0110B17E
:1044B00001286DD14BE04448D0F87801C0B942489A
:1044C00090F84A0100EB4000404901EB8000816810
:1044D0003D48C0F8B811012180F81A1189023C4802
:1044E000FCF743FA4FF480613A48FCF73EFA2DE0BE
:1044F0003548D0F8E80048BB4FF480613748FCF7F6
:104500002BFA18BB3048408800F5FA702E49C1F8E4
:10451000E8003148007860B901202F490870810215
:104520002C48FCF724FA4FF480612948FCF71DFA67
:104530000CE00020284908704FF480612448FCF703
:1045400016FA4FF480612348FCF70FFA21E01E4869
:10455000D0F8B801D8B900201F4908701A4890F85F
:104560004A0100EB4000194901EB80004168164800
:10457000C0F87811002180F81A114FF480611448B6
:10458000FCF7F5F94FF480611248FCF7EEF900E012
:1045900000BF00BF15E00C48D0F8B80168B94FF46F
:1045A00080610C48FCF7E1F94FF480610848FCF7A2
:1045B000DCF90721044880F80A1102E001E000E07C
:1045C00000BF00BF10BD000044010020B400002067
:1045D00000180140001C01400901002000140140A6
:1045E00010B5C34890F80B01082878D2DFE800F036
:1045F000041B1C5ED7EFEEEDBD48D0F8EC0088B987
:10460000BB4890F84B0100EB4000BA4901EB800039
:104610004168B748C0F87C11022180F80B110021D5
:1046200080F81B1161E160E1B14890F82B0170B98D
:104630004FF40061B048FCF79AF94FF40061AF48BD
:10464000FCF793F90321AA4880F80B1128E0A84849
:1046500090F82B0101280DD1C102A848FCF787F979
:104660004FF40061A448FCF780F90321A04880F8CA
:104670000B1115E09E4890F82B01022810D1002064
:104680009F4908704FF400619B48FCF770F94FF4A4
:1046900000619A48FCF769F90421954880F80B11EC
:1046A000934890F82B1180F83B111EE1904890F848
:1046B0002B1190F83B01814212D04FF400618E48DB
:1046C000FCF753F94FF400618C48FCF74EF90021D8
:1046D000874880F80B11C821C0F8EC1005E103E110
:1046E000834890F81B0110B1012855D11CE0804887
:1046F000D0F87C01B8B97E4890F84B0100EB40003F
:104700007C4901EB800081687948C0F8BC11012127
:1047100080F81B11C9027848FCF727F94FF40061B3
:104720007648FCF722F938E07148D0F8BC01F8B9B6
:104730006F4890F84B0100EB40006E4901EB8000A0
:1047400041686B48C0F87C11002180F81B1190F87B
:104750002B0170B94FF400616748FCF708F94FF47A
:1047600000616648FCF701F90321614880F80B11EC
:1047700011E05F4890F82B0101280CD1C1025F487D
:10478000FCF7F5F84FF400615B48FCF7EEF8032105
:10479000574880F80B1100E000BF00BFA5E0544867
:1047A00090F82B1190F83B01814211D04FF4006139
:1047B0005148FCF7DAF84FF400615048FCF7D5F89F
:1047C00000214B4880F80B118FE08CE08AE076E006
:1047D000474890F81B0110B101286DD14BE04448C7
:1047E000D0F87C01C0B9424890F84B0100EB400082
:1047F000404901EB800081683D48C0F8BC110121AF
:1048000080F81B11C9023C48FCF7AFF84FF4006177
:104810003A48FCF7AAF82DE03548D0F8EC0048BB40
:104820004FF400613748FCF797F818BB30484088D0
:1048300000F5FA702E49C1F8EC003148007860B9F3
:1048400001202F490870C1022C48FCF790F84FF462
:1048500000612948FCF789F80CE00020284908701D
:104860004FF400612448FCF782F84FF400612348BC
:10487000FCF77BF821E01E48D0F8BC01D8B9002035
:104880001F4908701A4890F84B0100EB4000194985
:1048900001EB800041681648C0F87C11002180F8C7
:1048A0001B114FF400611448FCF761F84FF40061EC
:1048B0001248FCF75AF800E000BF00BF15E00C48B2
:1048C000D0F8BC0168B94FF400610C48FCF74DF812
:1048D0004FF400610848FCF748F80721044880F8C5
:1048E0000B1102E001E000E000BF00BF10BD0000BE
:1048F00044010020B400002000180140001C0140C9
:104900000A0100200014014010B5C34890F80C01C2
:10491000082878D2DFE800F0041B1C5ED7EFEEED2C
:10492000BD48D0F8F00088B9BB4890F84C0100EBC6
:104930004000BA4901EB80004168B748C0F88011D7
:10494000022180F80C11002180F81C1161E160E166
:10495000B14890F82C0170B94FF48051B048FCF781
:1049600006F84FF48051AF48FBF7FFFF0321AA4838
:1049700080F80C1128E0A84890F82C0101280DD1EE
:104980000103A848FBF7F3FF4FF48051A448FBF75D
:10499000ECFF0321A04880F80C1115E09E4890F828
:1049A0002C01022810D100209F4908704FF480513B
:1049B0009B48FBF7DCFF4FF480519A48FBF7D5FF8B
:1049C0000421954880F80C11934890F82C1180F838
:1049D0003C111EE1904890F82C1190F83C01814266
:1049E00012D04FF480518E48FBF7BFFF4FF4805137
:1049F0008C48FBF7BAFF0021874880F80C11C821CA
:104A0000C0F8F01005E103E1834890F81C0110B1F3
:104A1000012855D11CE08048D0F88001B8B97E4803
:104A200090F84C0100EB40007C4901EB800081686C
:104A30007948C0F8C011012180F81C110903784899
:104A4000FBF793FF4FF480517648FBF78EFF38E079
:104A50007148D0F8C001F8B96F4890F84C0100EBEC
:104A600040006E4901EB800041686B48C0F880113E
:104A7000002180F81C1190F82C0170B94FF480517E
:104A80006748FBF774FF4FF480516648FBF76DFFF2
:104A90000321614880F80C1111E05F4890F82C0167
:104AA00001280CD101035F48FBF761FF4FF48051EF
:104AB0005B48FBF75AFF0321574880F80C1100E0D0
:104AC00000BF00BFA5E0544890F82C1190F83C01BD
:104AD000814211D04FF480515148FBF746FF4FF40B
:104AE00080515048FBF741FF00214B4880F80C11E2
:104AF0008FE08CE08AE076E0474890F81C0110B126
:104B000001286DD14BE04448D0F88001C0B942483B
:104B100090F84C0100EB4000404901EB80008168B7
:104B20003D48C0F8C011012180F81C1109033C4820
:104B3000FBF71BFF4FF480513A48FBF716FF2DE0BF
:104B40003548D0F8F00048BB4FF480513748FBF7A8
:104B500003FF18BB3048408800F5FA702E49C1F8B1
:104B6000F0003148007860B901202F490870010336
:104B70002C48FBF7FCFE4FF480512948FBF7F5FE6B
:104B80000CE00020284908704FF480512448FBF7BE
:104B9000EEFE4FF480512348FBF7E7FE21E01E486C
:104BA000D0F8C001D8B900201F4908701A4890F801
:104BB0004C0100EB4000194901EB800041681648A8
:104BC000C0F88011002180F81C114FF48051144866
:104BD000FBF7CDFE4FF480511248FBF7C6FE00E014
:104BE00000BF00BF15E00C48D0F8C00168B94FF411
:104BF00080510C48FBF7B9FE4FF480510848FBF791
:104C0000B4FE0721044880F80C1102E001E000E046
:104C100000BF00BF10BD000044010020B400002010
:104C200000180140001C01400B010020001401404D
:104C300010B5C34890F80D01082878D2DFE800F0DD
:104C4000041B1C5ED7EFEEEDBD48D0F8F40088B928
:104C5000BB4890F84D0100EB4000BA4901EB8000E1
:104C60004168B748C0F88411022180F80D11002175
:104C700080F81D1161E160E1B14890F82D0170B933
:104C80004FF40051B048FBF772FE4FF40051AF48AB
:104C9000FBF76BFE0321AA4880F80D1128E0A84815
:104CA00090F82D0101280DD14103A848FBF75FFEC4
:104CB0004FF40051A448FBF758FE0321A04880F8A8
:104CC0000D1115E09E4890F82D01022810D100200A
:104CD0009F4908704FF400519B48FBF748FE4FF482
:104CE00000519A48FBF741FE0421954880F80D11C8
:104CF000934890F82D1180F83D111EE1904890F8EE
:104D00002D1190F83D01814212D04FF400518E4890
:104D1000FBF72BFE4FF400518C48FBF726FE0021D9
:104D2000874880F80D11C821C0F8F41005E103E1AF
:104D3000834890F81D0110B1012855D11CE080482E
:104D4000D0F88401B8B97E4890F84D0100EB4000DE
:104D50007C4901EB800081687948C0F8C4110121C9
:104D600080F81D1149037848FBF7FFFD4FF400510F
:104D70007648FBF7FAFD38E07148D0F8C401F8B97D
:104D80006F4890F84D0100EB40006E4901EB800048
:104D900041686B48C0F88411002180F81D1190F81B
:104DA0002D0170B94FF400516748FBF7E0FD4FF457
:104DB00000516648FBF7D9FD0321614880F80D11C9
:104DC00011E05F4890F82D0101280CD141035F48A4
:104DD000FBF7CDFD4FF400515B48FBF7C6FD032107
:104DE000574880F80D1100E000BF00BFA5E054480F
:104DF00090F82D1190F83D01814211D04FF40051EF
:104E00005148FBF7B2FD4FF400515048FBF7ADFDA0
:104E100000214B4880F80D118FE08CE08AE076E0AD
:104E2000474890F81D0110B101286DD14BE044486E
:104E3000D0F88401C0B9424890F84D0100EB400021
:104E4000404901EB800081683D48C0F8C411012150
:104E500080F81D1149033C48FBF787FD4FF40051D2
:104E60003A48FBF782FD2DE03548D0F8F40048BB06
:104E70004FF400513748FBF76FFD18BB30484088AE
:104E800000F5FA702E49C1F8F4003148007860B995
:104E900001202F49087041032C48FBF768FD4FF4AF
:104EA00000512948FBF761FD0CE0002028490870FB
:104EB0004FF400512448FBF75AFD4FF400512348AA
:104EC000FBF753FD21E01E48D0F8C401D8B90020FB
:104ED0001F4908701A4890F84D0100EB400019492D
:104EE00001EB800041681648C0F88411002180F869
:104EF0001D114FF400511448FBF739FD4FF40051D8
:104F00001248FBF732FD00E000BF00BF15E00C487F
:104F1000D0F8C40168B94FF400510C48FBF725FDE7
:104F20004FF400510848FBF720FD0721044880F8A2
:104F30000D1102E001E000E000BF00BF10BD000065
:104F400044010020B400002000180140001C014072
:104F50000C0100200014014010B5C34890F80E0168
:104F6000082878D2DFE800F0041B1C5ED7EFEEEDD6
:104F7000BD48D0F8F80088B9BB4890F84E0100EB66
:104F80004000BA4901EB80004168B748C0F8881179
:104F9000022180F80E11002180F81E1161E160E10C
:104FA000B14890F82E0170B94FF48041B048FBF73A
:104FB000DEFC4FF48041AF48FBF7D7FC0321AA4841
:104FC00080F80E1128E0A84890F82E0101280DD194
:104FD0008103A848FBF7CBFC4FF48041A448FBF7C2
:104FE000C4FC0321A04880F80E1115E09E4890F8FB
:104FF0002E01022810D100209F4908704FF48041F3
:105000009B48FBF7B4FC4FF480419A48FBF7ADFC9A
:105010000421954880F80E11934890F82E1180F8DD
:105020003E111EE1904890F82E1190F83E01814209
:1050300012D04FF480418E48FBF797FC4FF480412B
:105040008C48FBF792FC0021874880F80E11C8219C
:10505000C0F8F81005E103E1834890F81E0110B193
:10506000012855D11CE08048D0F88801B8B97E48A5
:1050700090F84E0100EB40007C4901EB8000816814
:105080007948C0F8C811012180F81E1189037848B9
:10509000FBF76BFC4FF480417648FBF766FC38E089
:1050A0007148D0F8C801F8B96F4890F84E0100EB8C
:1050B00040006E4901EB800041686B48C0F88811E0
:1050C000002180F81E1190F82E0170B94FF4804134
:1050D0006748FBF74CFC4FF480416648FBF745FC02
:1050E0000321614880F80E1111E05F4890F82E010D
:1050F00001280CD181035F48FBF739FC4FF4804154
:105100005B48FBF732FC0321574880F80E1100E0A2
:1051100000BF00BFA5E0544890F82E1190F83E0162
:10512000814211D04FF480415148FBF71EFC4FF4EF
:1051300080415048FBF719FC00214B4880F80E11C4
:105140008FE08CE08AE076E0474890F81E0110B1CD
:1051500001286DD14BE04448D0F88801C0B94248DD
:1051600090F84E0100EB4000404901EB800081685F
:105170003D48C0F8C811012180F81E1189033C4840
:10518000FBF7F3FB4FF480413A48FBF7EEFB2DE0D1
:105190003548D0F8F80048BB4FF480413748FBF75A
:1051A000DBFB18BB3048408800F5FA702E49C1F887
:1051B000F8003148007860B901202F490870810358
:1051C0002C48FBF7D4FB4FF480412948FBF7CDFB7B
:1051D0000CE00020284908704FF480412448FBF778
:1051E000C6FB4FF480412348FBF7BFFB21E01E487C
:1051F000D0F8C801D8B900201F4908701A4890F8A3
:105200004E0100EB4000194901EB8000416816484F
:10521000C0F88811002180F81E114FF48041144815
:10522000FBF7A5FB4FF480411248FBF79EFB00E023
:1052300000BF00BF15E00C48D0F8C80168B94FF4B2
:1052400080410C48FBF791FB4FF480410848FBF785
:105250008CFB0721044880F80E1102E001E000E019
:1052600000BF00BF10BD000044010020B4000020BA
:1052700000180140001C01400D01002000140140F5
:1052800010B5C34890F80F01082878D2DFE800F085
:10529000041B1C5ED7EFEEEDBD48D0F8FC0088B9CA
:1052A000BB4890F84F0100EB4000BA4901EB800089
:1052B0004168B748C0F88C11022180F80F11002115
:1052C00080F81F1161E160E1B14890F82F0170B9D9
:1052D0004FF40041B048FBF74AFB4FF40041AF48A0
:1052E000FBF743FB0321AA4880F80F1128E0A848E8
:1052F00090F82F0101280DD1C103A848FBF737FB17
:105300004FF40041A448FBF730FB0321A04880F88C
:105310000F1115E09E4890F82F01022810D10020AF
:105320009F4908704FF400419B48FBF720FB4FF466
:1053300000419A48FBF719FB0421954880F80F11AA
:10534000934890F82F1180F83F111EE1904890F893
:105350002F1190F83F01814212D04FF400418E4846
:10536000FBF703FB4FF400418C48FBF7FEFA0021EA
:10537000874880F80F11C821C0F8FC1005E103E14F
:10538000834890F81F0110B1012855D11CE08048D6
:10539000D0F88C01B8B97E4890F84F0100EB40007E
:1053A0007C4901EB800081687948C0F8CC1101216B
:1053B00080F81F11C9037848FBF7D7FA4FF4004172
:1053C0007648FBF7D2FA38E07148D0F8CC01F8B94A
:1053D0006F4890F84F0100EB40006E4901EB8000F0
:1053E00041686B48C0F88C11002180F81F1190F8BB
:1053F0002F0170B94FF400416748FBF7B8FA4FF43A
:1054000000416648FBF7B1FA0321614880F80F11AB
:1054100011E05F4890F82F0101280CD1C1035F48CB
:10542000FBF7A5FA4FF400415B48FBF79EFA032116
:10543000574880F80F1100E000BF00BFA5E05448B6
:1054400090F82F1190F83F01814211D04FF40041A4
:105450005148FBF78AFA4FF400415048FBF785FAB0
:1054600000214B4880F80F118FE08CE08AE076E055
:10547000474890F81F0110B101286DD14BE0444816
:10548000D0F88C01C0B9424890F84F0100EB4000C1
:10549000404901EB800081683D48C0F8CC110121F2
:1054A00080F81F11C9033C48FBF75FFA4FF4004135
:1054B0003A48FBF75AFA2DE03548D0F8FC0048BBD3
:1054C0004FF400413748FBF747FA18BB3048408893
:1054D00000F5FA702E49C1F8FC003148007860B937
:1054E00001202F490870C1032C48FBF740FA4FF404
:1054F00000412948FBF739FA0CE0002028490870E0
:105500004FF400412448FBF732FA4FF4004123489E
:10551000FBF72BFA21E01E48D0F8CC01D8B90020C7
:105520001F4908701A4890F84F0100EB40001949D4
:1055300001EB800041681648C0F88C11002180F80A
:105540001F114FF400411448FBF711FA4FF40041CA
:105550001248FBF70AFA00E000BF00BF15E00C4854
:10556000D0F8CC0168B94FF400410C48FBF7FDF9C5
:105570004FF400410848FBF7F8F90721044880F888
:105580000F1102E001E000E000BF00BF10BD00000D
:1055900044010020B400002000180140001C01401C
:1055A0000E0100200014014008B50121402000F048
:1055B0003DFA4FF6FF70ADF8000003208DF80200B1
:1055C00010208DF8030069460A48FBF73AF90121DB
:1055D000802000F02BFA4FF6FF70ADF8000003209A
:1055E0008DF8020010208DF8030069460248FBF791
:1055F00028F908BD00180140001C014008B5012130
:10560000202000F013FA4FF6FF70ADF800000320E1
:105610008DF8020048208DF8030069460148FBF729
:1056200010F908BD00140140704710B54FF4A06098
:1056300000F03AF810BD000070B5002100230F22E1
:10564000C47804B3154C246804F4E064C4F5E06441
:10565000210AC1F10403CA40447804FA03F18478B2
:105660001440214309010E4C0678A155047804F03A
:105670001F050124AC4005786D11AD0005F1E02552
:10568000C5F8004109E0047804F01F050124AC408E
:10569000044D0678761145F8264070BD0CED00E00B
:1056A00000E400E080E100E002490143024A1160A9
:1056B000704700000000FA050CED00E02DE9F04114
:1056C00004460D4600F067FA00F03CFA012000F0B5
:1056D0005CFA072000F067FA0C2000F019FB20129A
:1056E000FDF706F8E0B2FDF703F82812FDF700F821
:1056F000E8B2FCF7FDFF142000EB2420E1B20844DF
:1057000000EB2520E9B200EB0108404600F034FA36
:105710004FF4FA60FBF738F907460FB17E7A00E0E4
:10572000FF263046BDE8F0812DE9F041054600F046
:1057300032FA00F007FA012000F027FA042000F006
:1057400032FA022000F0E4FA2846FCF7D1FFEF1D00
:10575000384600F011FA4FF4FA60FBF715F90646E7
:105760000EB1747A00E0FF242046BDE8F08170B5E8
:1057700000F011FA00F0E6F9012000F006FA03202B
:1057800000F011FA012000F0C3FA0526304600F0BF
:10579000F3F94FF4FA60FBF7F7F805460DB16C7AB0
:1057A00000E0FF24204670BD70B50546002400F0DF
:1057B000F2F900F0C7F900BF04E01949085DFCF7F1
:1057C00097FF641C0A2CF8DBC82001F08DFA1548FD
:1057D000008800F4004008B313480078EF281AD17D
:1057E00011484078012816D10F488079072812D136
:1057F0000D48807800060C49C97800EB01400A4941
:10580000097900EB01200849497908442860002003
:105810000449088070BD0020024908800120F9E792
:105820003C0000203C010020E806002070B500F09C
:10583000B2F900F087F9012000F0A7F9032000F089
:10584000B2F9032000F064FA0726304600F094F91C
:105850004FF4FA60FBF798F805460DB16C7A00E05A
:10586000FF24204670BD70B500F095F900F06AF98C
:10587000012000F08AF9032000F095F9052000F0DE
:1058800047FA0926304600F077F94FF4FA60FBF743
:105890007BF805460DB16C7A00E0FF24204670BD10
:1058A0002DE9F04781460D4616461F4600F073F974
:1058B00000F048F9012000F068F9082000F073F9C1
:1058C000042000F025FA4846FCF712FF2812FCF7E6
:1058D0000FFFE8B2FCF70CFF3012FCF709FFF0B243
:1058E000FCF706FF09F10D0000EB2520E9B20844A2
:1058F00000EB2620F1B200EB010A504600F03CF923
:105900004FF4FA60FBF740F8044664B194F809805C
:10591000E07AA17A00EB01203880607B217B00EBEC
:105920000120788001E04FF0FF084046BDE8F08795
:1059300008B50121042000F079F81020ADF800002E
:1059400028208DF8030003208DF8020069460248E4
:10595000FAF777FF08BD0000000801402DE9F0418B
:1059600006460C4600F017F900F0ECF8012000F0B4
:105970000CF9062000F017F9062000F0C9F93046AE
:10598000FCF7B6FE2012FCF7B3FEE0B2FCF7B0FE67
:1059900006F10D0000EB2420E1B200EB01084046C7
:1059A00000F0EAF84FF4FA60FAF7EEFF07460FB19D
:1059B0007D7A00E0FF252846BDE8F08170470000B1
:1059C00010B5002409E0601CC4B2142001F0B2F943
:1059D000FA2C02D100BF204610BD03480068002801
:1059E000F1D12046F8E700003001214229B1064AF2
:1059F000D2690243044BDA6104E0034AD26982436C
:105A0000014BDA61704700000010024029B1064ADC
:105A100012690243044B1A6104E0034A126982438B
:105A2000014B1A61704700000010024029B1064A7C
:105A300092690243044B9A6104E0034A92698243EB
:105A4000014B9A61704700000010024029B1064ADC
:105A5000D2680243044BDA6004E0034AD26882430E
:105A6000014BDA60704700000010024030B50021A1
:105A70000022002400232D4D6D6805F00C0121B19A
:105A8000042905D0082923D105E0294D056022E02D
:105A9000274D05601FE0254D6D6805F47012234DFC
:105AA0006D6805F48034022505EB92421CB9214D46
:105AB000554305600BE01D4D6D6805F400351DB1C3
:105AC0001C4D5543056002E0194D5543056002E049
:105AD000174D056000BF00BF144D6D6805F0F00163
